{
  "address": "0x7081f7a500460C6E18e9dFD8e23D2b27Ee496575",
  "abi": [
    {
      "anonymous": false,
      "inputs": [
        {
          "indexed": false,
          "internalType": "address",
          "name": "previousAdmin",
          "type": "address"
        },
        {
          "indexed": false,
          "internalType": "address",
          "name": "newAdmin",
          "type": "address"
        }
      ],
      "name": "AdminChanged",
      "type": "event"
    },
    {
      "anonymous": false,
      "inputs": [
        {
          "indexed": true,
          "internalType": "address",
          "name": "beacon",
          "type": "address"
        }
      ],
      "name": "BeaconUpgraded",
      "type": "event"
    },
    {
      "anonymous": false,
      "inputs": [
        {
          "indexed": false,
          "internalType": "uint8",
          "name": "version",
          "type": "uint8"
        }
      ],
      "name": "Initialized",
      "type": "event"
    },
    {
      "anonymous": false,
      "inputs": [
        {
          "indexed": false,
          "internalType": "address",
          "name": "account",
          "type": "address"
        }
      ],
      "name": "Paused",
      "type": "event"
    },
    {
      "anonymous": false,
      "inputs": [
        {
          "indexed": true,
          "internalType": "bytes32",
          "name": "nodeId",
          "type": "bytes32"
        },
        {
          "indexed": true,
          "internalType": "bytes32",
          "name": "operatorId",
          "type": "bytes32"
        },
        {
          "indexed": true,
          "internalType": "bytes32",
          "name": "projectId",
          "type": "bytes32"
        },
        {
          "indexed": false,
          "internalType": "uint256",
          "name": "lastPrice",
          "type": "uint256"
        },
        {
          "indexed": false,
          "internalType": "uint256",
          "name": "nextPrice",
          "type": "uint256"
        },
        {
          "components": [
            {
              "internalType": "bool",
              "name": "last",
              "type": "bool"
            },
            {
              "internalType": "bool",
              "name": "next",
              "type": "bool"
            }
          ],
          "indexed": false,
          "internalType": "struct ArmadaSlot",
          "name": "slot",
          "type": "tuple"
        }
      ],
      "name": "ReservationCreated",
      "type": "event"
    },
    {
      "anonymous": false,
      "inputs": [
        {
          "indexed": true,
          "internalType": "bytes32",
          "name": "nodeId",
          "type": "bytes32"
        },
        {
          "indexed": true,
          "internalType": "bytes32",
          "name": "operatorId",
          "type": "bytes32"
        },
        {
          "indexed": true,
          "internalType": "bytes32",
          "name": "projectId",
          "type": "bytes32"
        },
        {
          "indexed": false,
          "internalType": "uint256",
          "name": "lastPrice",
          "type": "uint256"
        },
        {
          "indexed": false,
          "internalType": "uint256",
          "name": "nextPrice",
          "type": "uint256"
        },
        {
          "components": [
            {
              "internalType": "bool",
              "name": "last",
              "type": "bool"
            },
            {
              "internalType": "bool",
              "name": "next",
              "type": "bool"
            }
          ],
          "indexed": false,
          "internalType": "struct ArmadaSlot",
          "name": "slot",
          "type": "tuple"
        }
      ],
      "name": "ReservationDeleted",
      "type": "event"
    },
    {
      "anonymous": false,
      "inputs": [
        {
          "indexed": true,
          "internalType": "bytes32",
          "name": "role",
          "type": "bytes32"
        },
        {
          "indexed": true,
          "internalType": "bytes32",
          "name": "previousAdminRole",
          "type": "bytes32"
        },
        {
          "indexed": true,
          "internalType": "bytes32",
          "name": "newAdminRole",
          "type": "bytes32"
        }
      ],
      "name": "RoleAdminChanged",
      "type": "event"
    },
    {
      "anonymous": false,
      "inputs": [
        {
          "indexed": true,
          "internalType": "bytes32",
          "name": "role",
          "type": "bytes32"
        },
        {
          "indexed": true,
          "internalType": "address",
          "name": "account",
          "type": "address"
        },
        {
          "indexed": true,
          "internalType": "address",
          "name": "sender",
          "type": "address"
        }
      ],
      "name": "RoleGranted",
      "type": "event"
    },
    {
      "anonymous": false,
      "inputs": [
        {
          "indexed": true,
          "internalType": "bytes32",
          "name": "role",
          "type": "bytes32"
        },
        {
          "indexed": true,
          "internalType": "address",
          "name": "account",
          "type": "address"
        },
        {
          "indexed": true,
          "internalType": "address",
          "name": "sender",
          "type": "address"
        }
      ],
      "name": "RoleRevoked",
      "type": "event"
    },
    {
      "anonymous": false,
      "inputs": [
        {
          "indexed": false,
          "internalType": "address",
          "name": "account",
          "type": "address"
        }
      ],
      "name": "Unpaused",
      "type": "event"
    },
    {
      "anonymous": false,
      "inputs": [
        {
          "indexed": true,
          "internalType": "address",
          "name": "implementation",
          "type": "address"
        }
      ],
      "name": "Upgraded",
      "type": "event"
    },
    {
      "inputs": [],
      "name": "DEFAULT_ADMIN_ROLE",
      "outputs": [
        {
          "internalType": "bytes32",
          "name": "",
          "type": "bytes32"
        }
      ],
      "stateMutability": "view",
      "type": "function"
    },
    {
      "inputs": [],
      "name": "IMPORTER_ROLE",
      "outputs": [
        {
          "internalType": "bytes32",
          "name": "",
          "type": "bytes32"
        }
      ],
      "stateMutability": "view",
      "type": "function"
    },
    {
      "inputs": [
        {
          "internalType": "bytes32",
          "name": "projectId",
          "type": "bytes32"
        },
        {
          "internalType": "bytes32[]",
          "name": "nodeIds",
          "type": "bytes32[]"
        },
        {
          "internalType": "uint256[]",
          "name": "maxPrices",
          "type": "uint256[]"
        },
        {
          "components": [
            {
              "internalType": "bool",
              "name": "last",
              "type": "bool"
            },
            {
              "internalType": "bool",
              "name": "next",
              "type": "bool"
            }
          ],
          "internalType": "struct ArmadaSlot",
          "name": "slot",
          "type": "tuple"
        }
      ],
      "name": "createReservations",
      "outputs": [],
      "stateMutability": "nonpayable",
      "type": "function"
    },
    {
      "inputs": [
        {
          "internalType": "bytes32",
          "name": "projectId",
          "type": "bytes32"
        },
        {
          "internalType": "bytes32",
          "name": "nodeId",
          "type": "bytes32"
        },
        {
          "internalType": "uint256",
          "name": "lastEpoch",
          "type": "uint256"
        },
        {
          "internalType": "uint256",
          "name": "nextEpoch",
          "type": "uint256"
        },
        {
          "components": [
            {
              "internalType": "bool",
              "name": "last",
              "type": "bool"
            },
            {
              "internalType": "bool",
              "name": "next",
              "type": "bool"
            }
          ],
          "internalType": "struct ArmadaSlot",
          "name": "slot",
          "type": "tuple"
        }
      ],
      "name": "deleteReservationImpl",
      "outputs": [],
      "stateMutability": "nonpayable",
      "type": "function"
    },
    {
      "inputs": [
        {
          "internalType": "bytes32",
          "name": "projectId",
          "type": "bytes32"
        },
        {
          "internalType": "bytes32[]",
          "name": "nodeIds",
          "type": "bytes32[]"
        },
        {
          "components": [
            {
              "internalType": "bool",
              "name": "last",
              "type": "bool"
            },
            {
              "internalType": "bool",
              "name": "next",
              "type": "bool"
            }
          ],
          "internalType": "struct ArmadaSlot",
          "name": "slot",
          "type": "tuple"
        }
      ],
      "name": "deleteReservations",
      "outputs": [],
      "stateMutability": "nonpayable",
      "type": "function"
    },
    {
      "inputs": [
        {
          "internalType": "bytes32",
          "name": "projectId",
          "type": "bytes32"
        }
      ],
      "name": "getReservationCount",
      "outputs": [
        {
          "internalType": "uint256",
          "name": "",
          "type": "uint256"
        }
      ],
      "stateMutability": "view",
      "type": "function"
    },
    {
      "inputs": [
        {
          "internalType": "bytes32",
          "name": "projectId",
          "type": "bytes32"
        },
        {
          "internalType": "uint256",
          "name": "skip",
          "type": "uint256"
        },
        {
          "internalType": "uint256",
          "name": "size",
          "type": "uint256"
        }
      ],
      "name": "getReservations",
      "outputs": [
        {
          "components": [
            {
              "internalType": "bytes32",
              "name": "id",
              "type": "bytes32"
            },
            {
              "internalType": "bytes32",
              "name": "operatorId",
              "type": "bytes32"
            },
            {
              "internalType": "string",
              "name": "host",
              "type": "string"
            },
            {
              "internalType": "string",
              "name": "region",
              "type": "string"
            },
            {
              "internalType": "bool",
              "name": "topology",
              "type": "bool"
            },
            {
              "internalType": "bool",
              "name": "disabled",
              "type": "bool"
            },
            {
              "internalType": "uint256[2]",
              "name": "prices",
              "type": "uint256[2]"
            },
            {
              "internalType": "bytes32[2]",
              "name": "projectIds",
              "type": "bytes32[2]"
            }
          ],
          "internalType": "struct ArmadaNode[]",
          "name": "result",
          "type": "tuple[]"
        }
      ],
      "stateMutability": "view",
      "type": "function"
    },
    {
      "inputs": [
        {
          "internalType": "bytes32",
          "name": "role",
          "type": "bytes32"
        }
      ],
      "name": "getRoleAdmin",
      "outputs": [
        {
          "internalType": "bytes32",
          "name": "",
          "type": "bytes32"
        }
      ],
      "stateMutability": "view",
      "type": "function"
    },
    {
      "inputs": [
        {
          "internalType": "bytes32",
          "name": "role",
          "type": "bytes32"
        },
        {
          "internalType": "address",
          "name": "account",
          "type": "address"
        }
      ],
      "name": "grantRole",
      "outputs": [],
      "stateMutability": "nonpayable",
      "type": "function"
    },
    {
      "inputs": [
        {
          "internalType": "bytes32",
          "name": "role",
          "type": "bytes32"
        },
        {
          "internalType": "address",
          "name": "account",
          "type": "address"
        }
      ],
      "name": "hasRole",
      "outputs": [
        {
          "internalType": "bool",
          "name": "",
          "type": "bool"
        }
      ],
      "stateMutability": "view",
      "type": "function"
    },
    {
      "inputs": [
        {
          "internalType": "address[]",
          "name": "admins",
          "type": "address[]"
        },
        {
          "internalType": "contract ArmadaRegistry",
          "name": "registry",
          "type": "address"
        },
        {
          "internalType": "bool",
          "name": "grantImporterRole",
          "type": "bool"
        }
      ],
      "name": "initialize",
      "outputs": [],
      "stateMutability": "nonpayable",
      "type": "function"
    },
    {
      "inputs": [],
      "name": "pause",
      "outputs": [],
      "stateMutability": "nonpayable",
      "type": "function"
    },
    {
      "inputs": [],
      "name": "paused",
      "outputs": [
        {
          "internalType": "bool",
          "name": "",
          "type": "bool"
        }
      ],
      "stateMutability": "view",
      "type": "function"
    },
    {
      "inputs": [],
      "name": "proxiableUUID",
      "outputs": [
        {
          "internalType": "bytes32",
          "name": "",
          "type": "bytes32"
        }
      ],
      "stateMutability": "view",
      "type": "function"
    },
    {
      "inputs": [
        {
          "internalType": "bytes32",
          "name": "projectId",
          "type": "bytes32"
        },
        {
          "internalType": "bytes32",
          "name": "nodeId",
          "type": "bytes32"
        }
      ],
      "name": "removeProjectNodeIdImpl",
      "outputs": [
        {
          "internalType": "bool",
          "name": "",
          "type": "bool"
        }
      ],
      "stateMutability": "nonpayable",
      "type": "function"
    },
    {
      "inputs": [
        {
          "internalType": "bytes32",
          "name": "role",
          "type": "bytes32"
        },
        {
          "internalType": "address",
          "name": "account",
          "type": "address"
        }
      ],
      "name": "renounceRole",
      "outputs": [],
      "stateMutability": "nonpayable",
      "type": "function"
    },
    {
      "inputs": [
        {
          "internalType": "bytes32",
          "name": "role",
          "type": "bytes32"
        },
        {
          "internalType": "address",
          "name": "account",
          "type": "address"
        }
      ],
      "name": "revokeRole",
      "outputs": [],
      "stateMutability": "nonpayable",
      "type": "function"
    },
    {
      "inputs": [
        {
          "internalType": "bytes4",
          "name": "interfaceId",
          "type": "bytes4"
        }
      ],
      "name": "supportsInterface",
      "outputs": [
        {
          "internalType": "bool",
          "name": "",
          "type": "bool"
        }
      ],
      "stateMutability": "view",
      "type": "function"
    },
    {
      "inputs": [],
      "name": "unpause",
      "outputs": [],
      "stateMutability": "nonpayable",
      "type": "function"
    },
    {
      "inputs": [
        {
          "components": [
            {
              "internalType": "bytes32",
              "name": "id",
              "type": "bytes32"
            },
            {
              "internalType": "bytes32",
              "name": "operatorId",
              "type": "bytes32"
            },
            {
              "internalType": "string",
              "name": "host",
              "type": "string"
            },
            {
              "internalType": "string",
              "name": "region",
              "type": "string"
            },
            {
              "internalType": "bool",
              "name": "topology",
              "type": "bool"
            },
            {
              "internalType": "bool",
              "name": "disabled",
              "type": "bool"
            },
            {
              "internalType": "uint256[2]",
              "name": "prices",
              "type": "uint256[2]"
            },
            {
              "internalType": "bytes32[2]",
              "name": "projectIds",
              "type": "bytes32[2]"
            }
          ],
          "internalType": "struct ArmadaNode[]",
          "name": "nodes",
          "type": "tuple[]"
        },
        {
          "internalType": "bool",
          "name": "revokeImporterRole",
          "type": "bool"
        }
      ],
      "name": "unsafeImportData",
      "outputs": [],
      "stateMutability": "nonpayable",
      "type": "function"
    },
    {
      "inputs": [
        {
          "internalType": "contract ArmadaRegistry",
          "name": "registry",
          "type": "address"
        }
      ],
      "name": "unsafeSetRegistry",
      "outputs": [],
      "stateMutability": "nonpayable",
      "type": "function"
    },
    {
      "inputs": [
        {
          "internalType": "address",
          "name": "newImplementation",
          "type": "address"
        }
      ],
      "name": "upgradeTo",
      "outputs": [],
      "stateMutability": "nonpayable",
      "type": "function"
    },
    {
      "inputs": [
        {
          "internalType": "address",
          "name": "newImplementation",
          "type": "address"
        },
        {
          "internalType": "bytes",
          "name": "data",
          "type": "bytes"
        }
      ],
      "name": "upgradeToAndCall",
      "outputs": [],
      "stateMutability": "payable",
      "type": "function"
    }
  ],
  "transactionHash": "0x5701d7743f1656f654cb7aede44272326ccc3a97f14ef137daa98f84d6e8f1ed",
  "numDeployments": 1,
  "solcInputHash": "8954a1dbbdeb92e7b5f479e7bc6275a0",
  "bytecode": "0x60a06040523060805234801561001457600080fd5b5060805161466a61004c60003960008181610ddf01528181610e1f01528181610ef001528181610f300152610fbf015261466a6000f3fe6080604052600436106101405760003560e01c80636fa2a067116100b6578063a2fcf50d1161006f578063a2fcf50d14610368578063b9a2adf014610388578063c7b76c52146103a8578063d547741f146103c8578063e5000f52146103e8578063ff3d93301461040857600080fd5b80636fa2a067146102bc5780637aee1c6b146102de5780638456cb59146102fe57806391d14854146103135780639cb628be14610333578063a217fddf1461035357600080fd5b806336568abe1161010857806336568abe146102275780633659cfe6146102475780633f4ba83a146102675780634f1ef2861461027c57806352d1902d1461028f5780635c975abb146102a457600080fd5b806301ffc9a7146101455780631e8698bf1461017a578063248a9ca3146101a75780632a2d5b2e146101e55780632f2ff15d14610207575b600080fd5b34801561015157600080fd5b506101656101603660046138af565b610428565b60405190151581526020015b60405180910390f35b34801561018657600080fd5b5061019a6101953660046138d9565b61045f565b6040516101719190613980565b3480156101b357600080fd5b506101d76101c2366004613a68565b60009081526065602052604090206001015490565b604051908152602001610171565b3480156101f157600080fd5b50610205610200366004613b96565b610640565b005b34801561021357600080fd5b50610205610222366004613c7f565b610d2c565b34801561023357600080fd5b50610205610242366004613c7f565b610d56565b34801561025357600080fd5b50610205610262366004613caf565b610dd4565b34801561027357600080fd5b50610205610eb4565b61020561028a366004613cf3565b610ee5565b34801561029b57600080fd5b506101d7610fb2565b3480156102b057600080fd5b5060975460ff16610165565b3480156102c857600080fd5b506101d760008051602061461583398151915281565b3480156102ea57600080fd5b506102056102f9366004613dd9565b611065565b34801561030a57600080fd5b50610205611212565b34801561031f57600080fd5b5061016561032e366004613c7f565b611241565b34801561033f57600080fd5b5061016561034e366004613e40565b61126c565b34801561035f57600080fd5b506101d7600081565b34801561037457600080fd5b50610205610383366004613e62565b611580565b34801561039457600080fd5b506102056103a3366004613caf565b611989565b3480156103b457600080fd5b506102056103c3366004613eac565b6119d3565b3480156103d457600080fd5b506102056103e3366004613c7f565b611b44565b3480156103f457600080fd5b506101d7610403366004613a68565b611b69565b34801561041457600080fd5b50610205610423366004613f02565b611b81565b60006001600160e01b03198216637965db0b60e01b148061045957506301ffc9a760e01b6001600160e01b03198316145b92915050565b6060600061012d60009054906101000a90046001600160a01b03166001600160a01b031663e29581aa6040518163ffffffff1660e01b815260040160206040518083038186803b1580156104b257600080fd5b505afa1580156104c6573d6000803e3d6000fd5b505050506040513d601f19601f820116820180604052508101906104ea9190613f59565b600086815261012e60205260408120919250610519858761050a856120a0565b6105149190613f8c565b6120aa565b9050806001600160401b0381111561053357610533613a81565b60405190808252806020026020018201604052801561056c57816020015b610559613837565b8152602001906001900390816105515790505b50935060005b81811015610635576001600160a01b0384166350c946fe61059385846120c0565b6040518263ffffffff1660e01b81526004016105b191815260200190565b60006040518083038186803b1580156105c957600080fd5b505afa1580156105dd573d6000803e3d6000fd5b505050506040513d6000823e601f3d908101601f19168201604052610605919081019061406a565b85828151811061061757610617614156565b6020026020010181905250808061062d9061416c565b915050610572565b505050509392505050565b83600061012d60009054906101000a90046001600160a01b03166001600160a01b031663dcc601286040518163ffffffff1660e01b815260040160206040518083038186803b15801561069257600080fd5b505afa1580156106a6573d6000803e3d6000fd5b505050506040513d601f19601f820116820180604052508101906106ca9190613f59565b6040516325afba4560e11b8152600481018490529091506000906001600160a01b03831690634b5f748a9060240160006040518083038186803b15801561071057600080fd5b505afa158015610724573d6000803e3d6000fd5b505050506040513d6000823e601f3d908101601f1916820160405261074c9190810190614192565b905080602001516001600160a01b0316336001600160a01b0316146107ac5760405162461bcd60e51b81526020600482015260116024820152703737ba10383937b532b1ba1037bbb732b960791b60448201526064015b60405180910390fd5b61012d60009054906101000a90046001600160a01b03166001600160a01b031663bb1f47406040518163ffffffff1660e01b8152600401600060405180830381600087803b1580156107fd57600080fd5b505af1158015610811573d6000803e3d6000fd5b5050505061082160975460ff1690565b1561083e5760405162461bcd60e51b81526004016107a390614283565b61084b60208501856142ad565b80610861575061086160408501602086016142ad565b6108975760405162461bcd60e51b81526020600482015260076024820152661b9bc81cdb1bdd60ca1b60448201526064016107a3565b84518651146108da5760405162461bcd60e51b815260206004820152600f60248201526e0d8cadccee8d040dad2e6dac2e8c6d608b1b60448201526064016107a3565b61012d546040805163aefdbc3160e01b815290516000926001600160a01b03169163aefdbc31916004808301926020929190829003018186803b15801561092057600080fd5b505afa158015610934573d6000803e3d6000fd5b505050506040513d601f19601f8201168201806040525081019061095891906142ca565b9050600061012d60009054906101000a90046001600160a01b03166001600160a01b0316639f253dbc6040518163ffffffff1660e01b815260040160206040518083038186803b1580156109ab57600080fd5b505afa1580156109bf573d6000803e3d6000fd5b505050506040513d601f19601f820116820180604052508101906109e391906142ca565b9050600061012d60009054906101000a90046001600160a01b03166001600160a01b031663c7d456346040518163ffffffff1660e01b815260040160206040518083038186803b158015610a3657600080fd5b505afa158015610a4a573d6000803e3d6000fd5b505050506040513d601f19601f82011682018060405250810190610a6e91906142ca565b905060005b8951811015610bd15761012d546040805163714ac0d560e11b815290516000926001600160a01b03169163e29581aa916004808301926020929190829003018186803b158015610ac257600080fd5b505afa158015610ad6573d6000803e3d6000fd5b505050506040513d601f19601f82011682018060405250810190610afa9190613f59565b6001600160a01b03166350c946fe8c8481518110610b1a57610b1a614156565b60200260200101516040518263ffffffff1660e01b8152600401610b4091815260200190565b60006040518083038186803b158015610b5857600080fd5b505afa158015610b6c573d6000803e3d6000fd5b505050506040513d6000823e601f3d908101601f19168201604052610b94919081019061406a565b9050610bbe8c828787878f8881518110610bb057610bb0614156565b60200260200101518f6120cc565b5080610bc98161416c565b915050610a73565b5061012d5460408051631b98c02560e31b815290516000926001600160a01b03169163dcc60128916004808301926020929190829003018186803b158015610c1857600080fd5b505afa158015610c2c573d6000803e3d6000fd5b505050506040513d601f19601f82011682018060405250810190610c509190613f59565b6001600160a01b0316634b5f748a8c6040518263ffffffff1660e01b8152600401610c7d91815260200190565b60006040518083038186803b158015610c9557600080fd5b505afa158015610ca9573d6000803e3d6000fd5b505050506040513d6000823e601f3d908101601f19168201604052610cd19190810190614192565b90508060a0015181608001511015610d1f5760405162461bcd60e51b81526020600482015260116024820152706e6f7420656e6f75676820657363726f7760781b60448201526064016107a3565b5050505050505050505050565b600082815260656020526040902060010154610d478161278e565b610d518383612798565b505050565b6001600160a01b0381163314610dc65760405162461bcd60e51b815260206004820152602f60248201527f416363657373436f6e74726f6c3a2063616e206f6e6c792072656e6f756e636560448201526e103937b632b9903337b91039b2b63360891b60648201526084016107a3565b610dd0828261281e565b5050565b306001600160a01b037f0000000000000000000000000000000000000000000000000000000000000000161415610e1d5760405162461bcd60e51b81526004016107a3906142e3565b7f00000000000000000000000000000000000000000000000000000000000000006001600160a01b0316610e666000805160206145ce833981519152546001600160a01b031690565b6001600160a01b031614610e8c5760405162461bcd60e51b81526004016107a39061432f565b610e9581612885565b60408051600080825260208201909252610eb1918391906128ac565b50565b610ebf600033611241565b610edb5760405162461bcd60e51b81526004016107a39061437b565b610ee3612a26565b565b306001600160a01b037f0000000000000000000000000000000000000000000000000000000000000000161415610f2e5760405162461bcd60e51b81526004016107a3906142e3565b7f00000000000000000000000000000000000000000000000000000000000000006001600160a01b0316610f776000805160206145ce833981519152546001600160a01b031690565b6001600160a01b031614610f9d5760405162461bcd60e51b81526004016107a39061432f565b610fa682612885565b610dd0828260016128ac565b6000306001600160a01b037f000000000000000000000000000000000000000000000000000000000000000016146110525760405162461bcd60e51b815260206004820152603860248201527f555550535570677261646561626c653a206d757374206e6f742062652063616c60448201527f6c6564207468726f7567682064656c656761746563616c6c000000000000000060648201526084016107a3565b506000805160206145ce83398151915290565b60006110716001612ab9565b90508015611089576000805461ff0019166101001790555b611091612b46565b611099612b46565b6110a1612b46565b6110a9612b46565b6110b1612b6d565b6110b9612b46565b61012d80546001600160a01b0319166001600160a01b03851617905560005b8481101561118e5760008686838181106110f4576110f4614156565b90506020020160208101906111099190613caf565b6001600160a01b0316141561114d5760405162461bcd60e51b815260206004820152600a6024820152693d32b9379030b236b4b760b11b60448201526064016107a3565b61117e600087878481811061116457611164614156565b90506020020160208101906111799190613caf565b612798565b6111878161416c565b90506110d8565b5081156111c5576111ad60008051602061461583398151915232612798565b6111c560008051602061461583398151915280612b9c565b801561120b576000805461ff0019169055604051600181527f7f26b83ff96e1f2b6a682f133852f6798a09c465da95921460cefb38474024989060200160405180910390a15b5050505050565b61121d600033611241565b6112395760405162461bcd60e51b81526004016107a39061437b565b610ee3612be7565b60009182526065602090815260408084206001600160a01b0393909316845291905290205460ff1690565b61012d546000906001600160a01b0316331480611320575061012d60009054906101000a90046001600160a01b03166001600160a01b031663299372686040518163ffffffff1660e01b815260040160206040518083038186803b1580156112d357600080fd5b505afa1580156112e7573d6000803e3d6000fd5b505050506040513d601f19601f8201168201806040525081019061130b9190613f59565b6001600160a01b0316336001600160a01b0316145b806113c2575061012d60009054906101000a90046001600160a01b03166001600160a01b031663e29581aa6040518163ffffffff1660e01b815260040160206040518083038186803b15801561137557600080fd5b505afa158015611389573d6000803e3d6000fd5b505050506040513d601f19601f820116820180604052508101906113ad9190613f59565b6001600160a01b0316336001600160a01b0316145b80611464575061012d60009054906101000a90046001600160a01b03166001600160a01b03166327a099d86040518163ffffffff1660e01b815260040160206040518083038186803b15801561141757600080fd5b505afa15801561142b573d6000803e3d6000fd5b505050506040513d601f19601f8201168201806040525081019061144f9190613f59565b6001600160a01b0316336001600160a01b0316145b80611506575061012d60009054906101000a90046001600160a01b03166001600160a01b031663dcc601286040518163ffffffff1660e01b815260040160206040518083038186803b1580156114b957600080fd5b505afa1580156114cd573d6000803e3d6000fd5b505050506040513d601f19601f820116820180604052508101906114f19190613f59565b6001600160a01b0316336001600160a01b0316145b61153d5760405162461bcd60e51b81526020600482015260086024820152671b9bdd081a5b5c1b60c21b60448201526064016107a3565b60975460ff16156115605760405162461bcd60e51b81526004016107a390614283565b600083815261012e602052604090206115799083612c3f565b9392505050565b61012d546001600160a01b0316331480611631575061012d60009054906101000a90046001600160a01b03166001600160a01b031663299372686040518163ffffffff1660e01b815260040160206040518083038186803b1580156115e457600080fd5b505afa1580156115f8573d6000803e3d6000fd5b505050506040513d601f19601f8201168201806040525081019061161c9190613f59565b6001600160a01b0316336001600160a01b0316145b806116d3575061012d60009054906101000a90046001600160a01b03166001600160a01b031663e29581aa6040518163ffffffff1660e01b815260040160206040518083038186803b15801561168657600080fd5b505afa15801561169a573d6000803e3d6000fd5b505050506040513d601f19601f820116820180604052508101906116be9190613f59565b6001600160a01b0316336001600160a01b0316145b80611775575061012d60009054906101000a90046001600160a01b03166001600160a01b03166327a099d86040518163ffffffff1660e01b815260040160206040518083038186803b15801561172857600080fd5b505afa15801561173c573d6000803e3d6000fd5b505050506040513d601f19601f820116820180604052508101906117609190613f59565b6001600160a01b0316336001600160a01b0316145b80611817575061012d60009054906101000a90046001600160a01b03166001600160a01b031663dcc601286040518163ffffffff1660e01b815260040160206040518083038186803b1580156117ca57600080fd5b505afa1580156117de573d6000803e3d6000fd5b505050506040513d601f19601f820116820180604052508101906118029190613f59565b6001600160a01b0316336001600160a01b0316145b61184e5760405162461bcd60e51b81526020600482015260086024820152671b9bdd081a5b5c1b60c21b60448201526064016107a3565b60975460ff16156118715760405162461bcd60e51b81526004016107a390614283565b61012d546040805163714ac0d560e11b815290516000926001600160a01b03169163e29581aa916004808301926020929190829003018186803b1580156118b757600080fd5b505afa1580156118cb573d6000803e3d6000fd5b505050506040513d601f19601f820116820180604052508101906118ef9190613f59565b604051632864a37f60e11b8152600481018790529091506000906001600160a01b038316906350c946fe9060240160006040518083038186803b15801561193557600080fd5b505afa158015611949573d6000803e3d6000fd5b505050506040513d6000823e601f3d908101601f19168201604052611971919081019061406a565b90506119808782878787612c4b565b50505050505050565b611994600033611241565b6119b05760405162461bcd60e51b81526004016107a39061437b565b61012d80546001600160a01b0319166001600160a01b0392909216919091179055565b6000805160206146158339815191526119eb8161278e565b60005b83811015611b1f576000858583818110611a0a57611a0a614156565b9050602002810190611a1c919061439e565b359050858583818110611a3157611a31614156565b9050602002810190611a43919061439e565b610100013515611aa457611aa28161012e6000898987818110611a6857611a68614156565b9050602002810190611a7a919061439e565b6101000160005b6020020135815260200190815260200160002061325f90919063ffffffff16565b505b858583818110611ab657611ab6614156565b9050602002810190611ac8919061439e565b610120013515611b0c57611b0a8161012e6000898987818110611aed57611aed614156565b9050602002810190611aff919061439e565b610100016001611a81565b505b5080611b178161416c565b9150506119ee565b508115611b3e57611b3e6000805160206146158339815191523361281e565b50505050565b600082815260656020526040902060010154611b5f8161278e565b610d51838361281e565b600081815261012e60205260408120610459906120a0565b82600061012d60009054906101000a90046001600160a01b03166001600160a01b031663dcc601286040518163ffffffff1660e01b815260040160206040518083038186803b158015611bd357600080fd5b505afa158015611be7573d6000803e3d6000fd5b505050506040513d601f19601f82011682018060405250810190611c0b9190613f59565b6040516325afba4560e11b8152600481018490529091506000906001600160a01b03831690634b5f748a9060240160006040518083038186803b158015611c5157600080fd5b505afa158015611c65573d6000803e3d6000fd5b505050506040513d6000823e601f3d908101601f19168201604052611c8d9190810190614192565b9050611c9a600033611241565b80611cba575080602001516001600160a01b0316336001600160a01b0316145b611d065760405162461bcd60e51b815260206004820152601a60248201527f6e6f742061646d696e206f722070726f6a656374206f776e657200000000000060448201526064016107a3565b61012d60009054906101000a90046001600160a01b03166001600160a01b031663bb1f47406040518163ffffffff1660e01b8152600401600060405180830381600087803b158015611d5757600080fd5b505af1158015611d6b573d6000803e3d6000fd5b50505050611d7b60975460ff1690565b15611d985760405162461bcd60e51b81526004016107a390614283565b611da560208501856142ad565b80611dbb5750611dbb60408501602086016142ad565b611df15760405162461bcd60e51b81526020600482015260076024820152661b9bc81cdb1bdd60ca1b60448201526064016107a3565b611dfe60208501856142ad565b1580611e105750611e10600033611241565b611e2c5760405162461bcd60e51b81526004016107a39061437b565b61012d546040805163714ac0d560e11b815290516000926001600160a01b03169163e29581aa916004808301926020929190829003018186803b158015611e7257600080fd5b505afa158015611e86573d6000803e3d6000fd5b505050506040513d601f19601f82011682018060405250810190611eaa9190613f59565b9050600061012d60009054906101000a90046001600160a01b03166001600160a01b031663aefdbc316040518163ffffffff1660e01b815260040160206040518083038186803b158015611efd57600080fd5b505afa158015611f11573d6000803e3d6000fd5b505050506040513d601f19601f82011682018060405250810190611f3591906142ca565b9050600061012d60009054906101000a90046001600160a01b03166001600160a01b0316639f253dbc6040518163ffffffff1660e01b815260040160206040518083038186803b158015611f8857600080fd5b505afa158015611f9c573d6000803e3d6000fd5b505050506040513d601f19601f82011682018060405250810190611fc091906142ca565b905060005b8851811015612094576000898281518110611fe257611fe2614156565b602002602001015190506000856001600160a01b03166350c946fe836040518263ffffffff1660e01b815260040161201c91815260200190565b60006040518083038186803b15801561203457600080fd5b505afa158015612048573d6000803e3d6000fd5b505050506040513d6000823e601f3d908101601f19168201604052612070919081019061406a565b905061207f8c8287878e612c4b565b5050808061208c9061416c565b915050611fc5565b50505050505050505050565b6000610459825490565b60008183106120b95781611579565b5090919050565b6000611579838361326b565b61012d546040805163714ac0d560e11b815290516000926001600160a01b03169163e29581aa916004808301926020929190829003018186803b15801561211257600080fd5b505afa158015612126573d6000803e3d6000fd5b505050506040513d601f19601f8201168201806040525081019061214a9190613f59565b905086608001511561218e5760405162461bcd60e51b815260206004820152600d60248201526c746f706f6c6f6779206e6f646560981b60448201526064016107a3565b8660a00151156121d05760405162461bcd60e51b815260206004820152600d60248201526c1b9bd91948191a5cd8589b1959609a1b60448201526064016107a3565b6000806121e060208501856142ad565b156124f9578860e0015188600281106121fb576121fb614156565b60200201511561223d5760405162461bcd60e51b815260206004820152600d60248201526c1b9bd919481c995cd95c9d9959609a1b60448201526064016107a3565b8860c00151886002811061225357612253614156565b602002015191508482111561229b5760405162461bcd60e51b815260206004820152600e60248201526d0e0e4d2c6ca40dad2e6dac2e8c6d60931b60448201526064016107a3565b61012d5460408051632e51f56b60e01b815290516000926001600160a01b031691632e51f56b916004808301926020929190829003018186803b1580156122e157600080fd5b505afa1580156122f5573d6000803e3d6000fd5b505050506040513d601f19601f8201168201806040525081019061231991906142ca565b61232388856143bf565b61232d91906143de565b8a5160405163f2be8ee760e01b81526004810191909152602481018b9052604481018d90529091506001600160a01b0385169063f2be8ee790606401600060405180830381600087803b15801561238357600080fd5b505af1158015612397573d6000803e3d6000fd5b50508b51604051631f9fb2bb60e01b81526004810191909152602481018c9052604481018490526001600160a01b0387169250631f9fb2bb9150606401600060405180830381600087803b1580156123ee57600080fd5b505af1158015612402573d6000803e3d6000fd5b5050505061012d60009054906101000a90046001600160a01b03166001600160a01b031663dcc601286040518163ffffffff1660e01b815260040160206040518083038186803b15801561245557600080fd5b505afa158015612469573d6000803e3d6000fd5b505050506040513d601f19601f8201168201806040525081019061248d9190613f59565b604051636d240eeb60e11b8152600481018d905260006024820152604481018390526001600160a01b03919091169063da481dd690606401600060405180830381600087803b1580156124df57600080fd5b505af11580156124f3573d6000803e3d6000fd5b50505050505b61250960408501602086016142ad565b15612721578860e00151876002811061252457612524614156565b6020020151156125665760405162461bcd60e51b815260206004820152600d60248201526c1b9bd919481c995cd95c9d9959609a1b60448201526064016107a3565b8860c00151876002811061257c5761257c614156565b60200201519050848111156125c45760405162461bcd60e51b815260206004820152600e60248201526d0e0e4d2c6ca40dad2e6dac2e8c6d60931b60448201526064016107a3565b885160405163f2be8ee760e01b8152600481019190915260248101889052604481018b90526001600160a01b0384169063f2be8ee790606401600060405180830381600087803b15801561261757600080fd5b505af115801561262b573d6000803e3d6000fd5b5050505061012d60009054906101000a90046001600160a01b03166001600160a01b031663dcc601286040518163ffffffff1660e01b815260040160206040518083038186803b15801561267e57600080fd5b505afa158015612692573d6000803e3d6000fd5b505050506040513d601f19601f820116820180604052508101906126b69190613f59565b604051636d240eeb60e11b8152600481018c905260006024820152604481018390526001600160a01b03919091169063da481dd690606401600060405180830381600087803b15801561270857600080fd5b505af115801561271c573d6000803e3d6000fd5b505050505b885160008b815261012e6020526040902061273b9161325f565b508989602001518a600001517f0deae0b487e00626eb6a45c225a856d96f7d385690db189a5af957e1a33d14fa85858960405161277a93929190614400565b60405180910390a450505050505050505050565b610eb18133613295565b6127a28282611241565b610dd05760008281526065602090815260408083206001600160a01b03851684529091529020805460ff191660011790556127da3390565b6001600160a01b0316816001600160a01b0316837f2f8788117e7eff1d82e926ec794901d17c78024a50270940304540a733656f0d60405160405180910390a45050565b6128288282611241565b15610dd05760008281526065602090815260408083206001600160a01b0385168085529252808320805460ff1916905551339285917ff6391f5c32d9c69d2a47ea670b442974b53935d1edc7fd64eb21e047a839171b9190a45050565b612890600033611241565b610eb15760405162461bcd60e51b81526004016107a39061437b565b7f4910fdfa16fed3260ed0e7147f7cc6da11a60208b5b9406d12a635614ffd91435460ff16156128df57610d51836132f9565b826001600160a01b03166352d1902d6040518163ffffffff1660e01b815260040160206040518083038186803b15801561291857600080fd5b505afa925050508015612948575060408051601f3d908101601f19168201909252612945918101906142ca565b60015b6129ab5760405162461bcd60e51b815260206004820152602e60248201527f45524331393637557067726164653a206e657720696d706c656d656e7461746960448201526d6f6e206973206e6f74205555505360901b60648201526084016107a3565b6000805160206145ce8339815191528114612a1a5760405162461bcd60e51b815260206004820152602960248201527f45524331393637557067726164653a20756e737570706f727465642070726f786044820152681a58589b195555525160ba1b60648201526084016107a3565b50610d51838383613395565b60975460ff16612a6f5760405162461bcd60e51b815260206004820152601460248201527314185d5cd8589b194e881b9bdd081c185d5cd95960621b60448201526064016107a3565b6097805460ff191690557f5db9ee0a495bf2e6ff9c91a7834c1ba4fdd244a5e8aa4e537bd38aeae4b073aa335b6040516001600160a01b03909116815260200160405180910390a1565b60008054610100900460ff1615612b00578160ff166001148015612adc5750303b155b612af85760405162461bcd60e51b81526004016107a39061443f565b506000919050565b60005460ff808416911610612b275760405162461bcd60e51b81526004016107a39061443f565b506000805460ff191660ff92909216919091179055600190565b919050565b600054610100900460ff16610ee35760405162461bcd60e51b81526004016107a39061448d565b600054610100900460ff16612b945760405162461bcd60e51b81526004016107a39061448d565b610ee36133ba565b600082815260656020526040808220600101805490849055905190918391839186917fbd79b86ffe0ab8e8776151514217cd7cacd52c909f66475c3af44e129f0b00ff9190a4505050565b60975460ff1615612c0a5760405162461bcd60e51b81526004016107a390614283565b6097805460ff191660011790557f62e78cea01bee320cd4e420270b5ea74000d11b0c9f74754ebdbfc544b05a258612a9c3390565b600061157983836133ed565b600080612c5b60208401846142ad565b15612f06578560c001518560028110612c7657612c76614156565b60200201519150868660e001518660028110612c9457612c94614156565b602002015114612cda5760405162461bcd60e51b81526020600482015260116024820152701b9bd919481b9bdd081c995cd95c9d9959607a1b60448201526064016107a3565b61012d60009054906101000a90046001600160a01b03166001600160a01b031663e29581aa6040518163ffffffff1660e01b815260040160206040518083038186803b158015612d2957600080fd5b505afa158015612d3d573d6000803e3d6000fd5b505050506040513d601f19601f82011682018060405250810190612d619190613f59565b865160405163f2be8ee760e01b8152600481019190915260248101879052600060448201526001600160a01b03919091169063f2be8ee790606401600060405180830381600087803b158015612db657600080fd5b505af1158015612dca573d6000803e3d6000fd5b5050505061012d60009054906101000a90046001600160a01b03166001600160a01b031663dcc601286040518163ffffffff1660e01b815260040160206040518083038186803b158015612e1d57600080fd5b505afa158015612e31573d6000803e3d6000fd5b505050506040513d601f19601f82011682018060405250810190612e559190613f59565b604051636d240eeb60e11b81526004810189905260248101849052600060448201526001600160a01b03919091169063da481dd690606401600060405180830381600087803b158015612ea757600080fd5b505af1158015612ebb573d6000803e3d6000fd5b50505050868660e001518560028110612ed657612ed6614156565b602002015114612f06578551600088815261012e60205260409020612efa91612c3f565b612f0657612f066144d8565b612f1660408401602085016142ad565b156131c1578560c001518460028110612f3157612f31614156565b60200201519050868660e001518560028110612f4f57612f4f614156565b602002015114612f955760405162461bcd60e51b81526020600482015260116024820152701b9bd919481b9bdd081c995cd95c9d9959607a1b60448201526064016107a3565b61012d60009054906101000a90046001600160a01b03166001600160a01b031663e29581aa6040518163ffffffff1660e01b815260040160206040518083038186803b158015612fe457600080fd5b505afa158015612ff8573d6000803e3d6000fd5b505050506040513d601f19601f8201168201806040525081019061301c9190613f59565b865160405163f2be8ee760e01b8152600481019190915260248101869052600060448201526001600160a01b03919091169063f2be8ee790606401600060405180830381600087803b15801561307157600080fd5b505af1158015613085573d6000803e3d6000fd5b5050505061012d60009054906101000a90046001600160a01b03166001600160a01b031663dcc601286040518163ffffffff1660e01b815260040160206040518083038186803b1580156130d857600080fd5b505afa1580156130ec573d6000803e3d6000fd5b505050506040513d601f19601f820116820180604052508101906131109190613f59565b604051636d240eeb60e11b81526004810189905260248101839052600060448201526001600160a01b03919091169063da481dd690606401600060405180830381600087803b15801561316257600080fd5b505af1158015613176573d6000803e3d6000fd5b50505050868660e00151866002811061319157613191614156565b6020020151146131c1578551600088815261012e602052604090206131b591612c3f565b6131c1576131c16144d8565b6131ce60208401846142ad565b80156131e557506131e560408401602085016142ad565b15613210578551600088815261012e6020526040902061320491612c3f565b613210576132106144d8565b86866020015187600001517f289b74863d2b35ba0f436a180b5ef6bb8879ee0b2afd14609b0a066e1da7bf5085858860405161324e93929190614400565b60405180910390a450505050505050565b600061157983836134e0565b600082600001828154811061328257613282614156565b9060005260206000200154905092915050565b61329f8282611241565b610dd0576132b7816001600160a01b0316601461352f565b6132c283602061352f565b6040516020016132d39291906144ee565b60408051601f198184030181529082905262461bcd60e51b82526107a391600401614563565b6001600160a01b0381163b6133665760405162461bcd60e51b815260206004820152602d60248201527f455243313936373a206e657720696d706c656d656e746174696f6e206973206e60448201526c1bdd08184818dbdb9d1c9858dd609a1b60648201526084016107a3565b6000805160206145ce83398151915280546001600160a01b0319166001600160a01b0392909216919091179055565b61339e836136ca565b6000825111806133ab5750805b15610d5157611b3e838361370a565b600054610100900460ff166133e15760405162461bcd60e51b81526004016107a39061448d565b6097805460ff19169055565b600081815260018301602052604081205480156134d6576000613411600183613f8c565b855490915060009061342590600190613f8c565b905081811461348a57600086600001828154811061344557613445614156565b906000526020600020015490508087600001848154811061346857613468614156565b6000918252602080832090910192909255918252600188019052604090208390555b855486908061349b5761349b614576565b600190038181906000526020600020016000905590558560010160008681526020019081526020016000206000905560019350505050610459565b6000915050610459565b600081815260018301602052604081205461352757508154600181810184556000848152602080822090930184905584548482528286019093526040902091909155610459565b506000610459565b6060600061353e8360026143bf565b61354990600261458c565b6001600160401b0381111561356057613560613a81565b6040519080825280601f01601f19166020018201604052801561358a576020820181803683370190505b509050600360fc1b816000815181106135a5576135a5614156565b60200101906001600160f81b031916908160001a905350600f60fb1b816001815181106135d4576135d4614156565b60200101906001600160f81b031916908160001a90535060006135f88460026143bf565b61360390600161458c565b90505b600181111561367b576f181899199a1a9b1b9c1cb0b131b232b360811b85600f166010811061363757613637614156565b1a60f81b82828151811061364d5761364d614156565b60200101906001600160f81b031916908160001a90535060049490941c93613674816145a4565b9050613606565b5083156115795760405162461bcd60e51b815260206004820181905260248201527f537472696e67733a20686578206c656e67746820696e73756666696369656e7460448201526064016107a3565b6136d3816132f9565b6040516001600160a01b038216907fbc7cd75a20ee27fd9adebab32041f755214dbc6bffa90cc0225b39da2e5c2d3b90600090a250565b60606001600160a01b0383163b6137725760405162461bcd60e51b815260206004820152602660248201527f416464726573733a2064656c65676174652063616c6c20746f206e6f6e2d636f6044820152651b9d1c9858dd60d21b60648201526084016107a3565b600080846001600160a01b03168460405161378d91906145bb565b600060405180830381855af49150503d80600081146137c8576040519150601f19603f3d011682016040523d82523d6000602084013e6137cd565b606091505b50915091506137f582826040518060600160405280602781526020016145ee602791396137fe565b95945050505050565b6060831561380d575081611579565b82511561381d5782518084602001fd5b8160405162461bcd60e51b81526004016107a39190614563565b6040518061010001604052806000801916815260200160008019168152602001606081526020016060815260200160001515815260200160001515815260200161387f613891565b815260200161388c613891565b905290565b60405180604001604052806002906020820280368337509192915050565b6000602082840312156138c157600080fd5b81356001600160e01b03198116811461157957600080fd5b6000806000606084860312156138ee57600080fd5b505081359360208301359350604090920135919050565b60005b83811015613920578181015183820152602001613908565b83811115611b3e5750506000910152565b60008151808452613949816020860160208601613905565b601f01601f19169290920160200192915050565b8060005b6002811015611b3e578151845260209384019390910190600101613961565b60006020808301818452808551808352604092508286019150828160051b87010184880160005b83811015613a5a57603f1989840301855281516101408151855288820151898601528782015181898701526139de82870182613931565b915050606080830151868303828801526139f88382613931565b925050506080808301511515818701525060a080830151613a1c8288018215159052565b505060c080830151613a308288018261395d565b505060e08201519150613a4761010086018361395d565b95880195935050908601906001016139a7565b509098975050505050505050565b600060208284031215613a7a57600080fd5b5035919050565b634e487b7160e01b600052604160045260246000fd5b60405161010081016001600160401b0381118282101715613aba57613aba613a81565b60405290565b604051601f8201601f191681016001600160401b0381118282101715613ae857613ae8613a81565b604052919050565b60006001600160401b03821115613b0957613b09613a81565b5060051b60200190565b600082601f830112613b2457600080fd5b81356020613b39613b3483613af0565b613ac0565b82815260059290921b84018101918181019086841115613b5857600080fd5b8286015b84811015613b735780358352918301918301613b5c565b509695505050505050565b600060408284031215613b9057600080fd5b50919050565b60008060008060a08587031215613bac57600080fd5b843593506020808601356001600160401b0380821115613bcb57600080fd5b613bd789838a01613b13565b95506040880135915080821115613bed57600080fd5b508601601f81018813613bff57600080fd5b8035613c0d613b3482613af0565b81815260059190911b8201830190838101908a831115613c2c57600080fd5b928401925b82841015613c4a57833582529284019290840190613c31565b8096505050505050613c5f8660608701613b7e565b905092959194509250565b6001600160a01b0381168114610eb157600080fd5b60008060408385031215613c9257600080fd5b823591506020830135613ca481613c6a565b809150509250929050565b600060208284031215613cc157600080fd5b813561157981613c6a565b60006001600160401b03821115613ce557613ce5613a81565b50601f01601f191660200190565b60008060408385031215613d0657600080fd5b8235613d1181613c6a565b915060208301356001600160401b03811115613d2c57600080fd5b8301601f81018513613d3d57600080fd5b8035613d4b613b3482613ccc565b818152866020838501011115613d6057600080fd5b816020840160208301376000602083830101528093505050509250929050565b60008083601f840112613d9257600080fd5b5081356001600160401b03811115613da957600080fd5b6020830191508360208260051b8501011115613dc457600080fd5b9250929050565b8015158114610eb157600080fd5b60008060008060608587031215613def57600080fd5b84356001600160401b03811115613e0557600080fd5b613e1187828801613d80565b9095509350506020850135613e2581613c6a565b91506040850135613e3581613dcb565b939692955090935050565b60008060408385031215613e5357600080fd5b50508035926020909101359150565b600080600080600060c08688031215613e7a57600080fd5b85359450602086013593506040860135925060608601359150613ea08760808801613b7e565b90509295509295909350565b600080600060408486031215613ec157600080fd5b83356001600160401b03811115613ed757600080fd5b613ee386828701613d80565b9094509250506020840135613ef781613dcb565b809150509250925092565b600080600060808486031215613f1757600080fd5b8335925060208401356001600160401b03811115613f3457600080fd5b613f4086828701613b13565b925050613f508560408601613b7e565b90509250925092565b600060208284031215613f6b57600080fd5b815161157981613c6a565b634e487b7160e01b600052601160045260246000fd5b600082821015613f9e57613f9e613f76565b500390565b600082601f830112613fb457600080fd5b8151613fc2613b3482613ccc565b818152846020838601011115613fd757600080fd5b613fe8826020830160208701613905565b949350505050565b8051612b4181613dcb565b600082601f83011261400c57600080fd5b604051604081018181106001600160401b038211171561402e5761402e613a81565b806040525080604084018581111561404557600080fd5b845b8181101561405f578051835260209283019201614047565b509195945050505050565b60006020828403121561407c57600080fd5b81516001600160401b038082111561409357600080fd5b9083019061014082860312156140a857600080fd5b6140b0613a97565b82518152602083015160208201526040830151828111156140d057600080fd5b6140dc87828601613fa3565b6040830152506060830151828111156140f457600080fd5b61410087828601613fa3565b60608301525061411260808401613ff0565b608082015261412360a08401613ff0565b60a08201526141358660c08501613ffb565b60c0820152614148866101008501613ffb565b60e082015295945050505050565b634e487b7160e01b600052603260045260246000fd5b600060001982141561418057614180613f76565b5060010190565b8051612b4181613c6a565b6000602082840312156141a457600080fd5b81516001600160401b03808211156141bb57600080fd5b9083019061010082860312156141d057600080fd5b6141d8613a97565b825181526141e860208401614187565b60208201526040830151828111156141ff57600080fd5b61420b87828601613fa3565b60408301525060608301518281111561422357600080fd5b61422f87828601613fa3565b6060830152506080830151608082015260a083015160a082015260c08301518281111561425b57600080fd5b61426787828601613fa3565b60c08301525060e083015160e082015280935050505092915050565b60208082526010908201526f14185d5cd8589b194e881c185d5cd95960821b604082015260600190565b6000602082840312156142bf57600080fd5b813561157981613dcb565b6000602082840312156142dc57600080fd5b5051919050565b6020808252602c908201527f46756e6374696f6e206d7573742062652063616c6c6564207468726f7567682060408201526b19195b1959d85d1958d85b1b60a21b606082015260800190565b6020808252602c908201527f46756e6374696f6e206d7573742062652063616c6c6564207468726f7567682060408201526b6163746976652070726f787960a01b606082015260800190565b6020808252600990820152683737ba1030b236b4b760b91b604082015260600190565b6000823561013e198336030181126143b557600080fd5b9190910192915050565b60008160001904831182151516156143d9576143d9613f76565b500290565b6000826143fb57634e487b7160e01b600052601260045260246000fd5b500490565b8381526020810183905260808101823561441981613dcb565b15156040830152602083013561442e81613dcb565b801515606084015250949350505050565b6020808252602e908201527f496e697469616c697a61626c653a20636f6e747261637420697320616c72656160408201526d191e481a5b9a5d1a585b1a5e995960921b606082015260800190565b6020808252602b908201527f496e697469616c697a61626c653a20636f6e7472616374206973206e6f74206960408201526a6e697469616c697a696e6760a81b606082015260800190565b634e487b7160e01b600052600160045260246000fd5b7f416363657373436f6e74726f6c3a206163636f756e7420000000000000000000815260008351614526816017850160208801613905565b7001034b99036b4b9b9b4b733903937b6329607d1b6017918401918201528351614557816028840160208801613905565b01602801949350505050565b6020815260006115796020830184613931565b634e487b7160e01b600052603160045260246000fd5b6000821982111561459f5761459f613f76565b500190565b6000816145b3576145b3613f76565b506000190190565b600082516143b581846020870161390556fe360894a13ba1a3210667c828492db98dca3e2076cc3735a920a3ca505d382bbc416464726573733a206c6f772d6c6576656c2064656c65676174652063616c6c206661696c65649dd0c3bd9bb5e1c820c362d05d5cb38480246edb10ff416751bc3dcaccab86fea2646970667358221220f9151ced665099edab4967c12b322834e99649c9038ee056d585e7eb8442c1a364736f6c63430008090033",
  "devdoc": {
    "kind": "dev",
    "methods": {
      "createReservations(bytes32,bytes32[],uint256[],(bool,bool))": {
        "params": {
          "maxPrices": "At what max price to reserve. A safety mechanism in case price changes during this call. Use slot.last to reserve immediately in the current epoch (AKA spot), instead of at the start of next epoch. In this case, the node prices will be prorated, but the project won't be able to immediately release these nodes until next epoch. Use slot.next to auto-renew reservation in the next epoch (required if !slot.last)."
        }
      },
      "getReservations(bytes32,uint256,uint256)": {
        "details": "Reverts if skip or size are out of bounds"
      },
      "getRoleAdmin(bytes32)": {
        "details": "Returns the admin role that controls `role`. See {grantRole} and {revokeRole}. To change a role's admin, use {_setRoleAdmin}."
      },
      "grantRole(bytes32,address)": {
        "details": "Grants `role` to `account`. If `account` had not been already granted `role`, emits a {RoleGranted} event. Requirements: - the caller must have ``role``'s admin role."
      },
      "hasRole(bytes32,address)": {
        "details": "Returns `true` if `account` has been granted `role`."
      },
      "initialize(address[],address,bool)": {
        "details": "Called once to set up the contract. Not called during proxy upgrades.",
        "params": {
          "grantImporterRole": "allows the contract deployer to import initial data into the contract using unsafeImport* functions, which is used for proxy-less upgrades. CAUTION: Once import is finished, the importer role should be explicitly revoked."
        }
      },
      "paused()": {
        "details": "Returns true if the contract is paused, and false otherwise."
      },
      "proxiableUUID()": {
        "details": "Implementation of the ERC1822 {proxiableUUID} function. This returns the storage slot used by the implementation. It is used to validate that the this implementation remains valid after an upgrade. IMPORTANT: A proxy pointing at a proxiable contract should not be considered proxiable itself, because this risks bricking a proxy that upgrades to it, by delegating to itself until out of gas. Thus it is critical that this function revert if invoked through a proxy. This is guaranteed by the `notDelegated` modifier."
      },
      "renounceRole(bytes32,address)": {
        "details": "Revokes `role` from the calling account. Roles are often managed via {grantRole} and {revokeRole}: this function's purpose is to provide a mechanism for accounts to lose their privileges if they are compromised (such as when a trusted device is misplaced). If the calling account had been revoked `role`, emits a {RoleRevoked} event. Requirements: - the caller must be `account`."
      },
      "revokeRole(bytes32,address)": {
        "details": "Revokes `role` from `account`. If `account` had been granted `role`, emits a {RoleRevoked} event. Requirements: - the caller must have ``role``'s admin role."
      },
      "supportsInterface(bytes4)": {
        "details": "See {IERC165-supportsInterface}."
      },
      "unsafeImportData((bytes32,bytes32,string,string,bool,bool,uint256[2],bytes32[2])[],bool)": {
        "details": "Allows to import initial contract data. Used for proxy-less upgrades.",
        "params": {
          "revokeImporterRole": "stops further data import by revoking the role. CAUTION: Once import is finished, the role should be explicitly revoked."
        }
      },
      "unsafeSetRegistry(address)": {
        "details": "CAUTION: This can break data consistency. Used for proxy-less upgrades."
      },
      "upgradeTo(address)": {
        "details": "Upgrade the implementation of the proxy to `newImplementation`. Calls {_authorizeUpgrade}. Emits an {Upgraded} event."
      },
      "upgradeToAndCall(address,bytes)": {
        "details": "Upgrade the implementation of the proxy to `newImplementation`, and subsequently execute the function call encoded in `data`. Calls {_authorizeUpgrade}. Emits an {Upgraded} event."
      }
    },
    "title": "Entry point for managing node reservations by projects",
    "version": 1
  },
  "userdoc": {
    "kind": "user",
    "methods": {
      "createReservations(bytes32,bytes32[],uint256[],(bool,bool))": {
        "notice": "Reserves content nodes and locks corresponding escrow amount. Reverts if escrow is insufficient."
      },
      "deleteReservations(bytes32,bytes32[],(bool,bool))": {
        "notice": "Releases content nodes starting from next epoch and unlocks project escrow Project owner can use slot.next to schedule reservation to be deleted in the next epoch. Admin can additionally use slot.last to immediately delete reservation in the current epoch. The latter is an emergency mechanism. As a side effect, the project won't be billed for the node usage in the epoch so far, and the operator won't be credited for providing their node."
      }
    },
    "version": 1
  },
  "storageLayout": {
    "storage": [
      {
        "astId": 808,
        "contract": "contracts/ArmadaReservations.sol:ArmadaReservations",
        "label": "_initialized",
        "offset": 0,
        "slot": "0",
        "type": "t_uint8"
      },
      {
        "astId": 811,
        "contract": "contracts/ArmadaReservations.sol:ArmadaReservations",
        "label": "_initializing",
        "offset": 1,
        "slot": "0",
        "type": "t_bool"
      },
      {
        "astId": 1533,
        "contract": "contracts/ArmadaReservations.sol:ArmadaReservations",
        "label": "__gap",
        "offset": 0,
        "slot": "1",
        "type": "t_array(t_uint256)50_storage"
      },
      {
        "astId": 1840,
        "contract": "contracts/ArmadaReservations.sol:ArmadaReservations",
        "label": "__gap",
        "offset": 0,
        "slot": "51",
        "type": "t_array(t_uint256)50_storage"
      },
      {
        "astId": 39,
        "contract": "contracts/ArmadaReservations.sol:ArmadaReservations",
        "label": "_roles",
        "offset": 0,
        "slot": "101",
        "type": "t_mapping(t_bytes32,t_struct(RoleData)34_storage)"
      },
      {
        "astId": 338,
        "contract": "contracts/ArmadaReservations.sol:ArmadaReservations",
        "label": "__gap",
        "offset": 0,
        "slot": "102",
        "type": "t_array(t_uint256)49_storage"
      },
      {
        "astId": 1100,
        "contract": "contracts/ArmadaReservations.sol:ArmadaReservations",
        "label": "_paused",
        "offset": 0,
        "slot": "151",
        "type": "t_bool"
      },
      {
        "astId": 1189,
        "contract": "contracts/ArmadaReservations.sol:ArmadaReservations",
        "label": "__gap",
        "offset": 0,
        "slot": "152",
        "type": "t_array(t_uint256)49_storage"
      },
      {
        "astId": 790,
        "contract": "contracts/ArmadaReservations.sol:ArmadaReservations",
        "label": "__gap",
        "offset": 0,
        "slot": "201",
        "type": "t_array(t_uint256)50_storage"
      },
      {
        "astId": 1078,
        "contract": "contracts/ArmadaReservations.sol:ArmadaReservations",
        "label": "__gap",
        "offset": 0,
        "slot": "251",
        "type": "t_array(t_uint256)50_storage"
      },
      {
        "astId": 16450,
        "contract": "contracts/ArmadaReservations.sol:ArmadaReservations",
        "label": "_registry",
        "offset": 0,
        "slot": "301",
        "type": "t_contract(ArmadaRegistry)16420"
      },
      {
        "astId": 16455,
        "contract": "contracts/ArmadaReservations.sol:ArmadaReservations",
        "label": "_projectNodeIds",
        "offset": 0,
        "slot": "302",
        "type": "t_mapping(t_bytes32,t_struct(Bytes32Set)9898_storage)"
      }
    ],
    "types": {
      "t_address": {
        "encoding": "inplace",
        "label": "address",
        "numberOfBytes": "20"
      },
      "t_array(t_bytes32)dyn_storage": {
        "base": "t_bytes32",
        "encoding": "dynamic_array",
        "label": "bytes32[]",
        "numberOfBytes": "32"
      },
      "t_array(t_uint256)49_storage": {
        "base": "t_uint256",
        "encoding": "inplace",
        "label": "uint256[49]",
        "numberOfBytes": "1568"
      },
      "t_array(t_uint256)50_storage": {
        "base": "t_uint256",
        "encoding": "inplace",
        "label": "uint256[50]",
        "numberOfBytes": "1600"
      },
      "t_bool": {
        "encoding": "inplace",
        "label": "bool",
        "numberOfBytes": "1"
      },
      "t_bytes32": {
        "encoding": "inplace",
        "label": "bytes32",
        "numberOfBytes": "32"
      },
      "t_contract(ArmadaRegistry)16420": {
        "encoding": "inplace",
        "label": "contract ArmadaRegistry",
        "numberOfBytes": "20"
      },
      "t_mapping(t_address,t_bool)": {
        "encoding": "mapping",
        "key": "t_address",
        "label": "mapping(address => bool)",
        "numberOfBytes": "32",
        "value": "t_bool"
      },
      "t_mapping(t_bytes32,t_struct(Bytes32Set)9898_storage)": {
        "encoding": "mapping",
        "key": "t_bytes32",
        "label": "mapping(bytes32 => struct EnumerableSet.Bytes32Set)",
        "numberOfBytes": "32",
        "value": "t_struct(Bytes32Set)9898_storage"
      },
      "t_mapping(t_bytes32,t_struct(RoleData)34_storage)": {
        "encoding": "mapping",
        "key": "t_bytes32",
        "label": "mapping(bytes32 => struct AccessControlUpgradeable.RoleData)",
        "numberOfBytes": "32",
        "value": "t_struct(RoleData)34_storage"
      },
      "t_mapping(t_bytes32,t_uint256)": {
        "encoding": "mapping",
        "key": "t_bytes32",
        "label": "mapping(bytes32 => uint256)",
        "numberOfBytes": "32",
        "value": "t_uint256"
      },
      "t_struct(Bytes32Set)9898_storage": {
        "encoding": "inplace",
        "label": "struct EnumerableSet.Bytes32Set",
        "members": [
          {
            "astId": 9897,
            "contract": "contracts/ArmadaReservations.sol:ArmadaReservations",
            "label": "_inner",
            "offset": 0,
            "slot": "0",
            "type": "t_struct(Set)9704_storage"
          }
        ],
        "numberOfBytes": "64"
      },
      "t_struct(RoleData)34_storage": {
        "encoding": "inplace",
        "label": "struct AccessControlUpgradeable.RoleData",
        "members": [
          {
            "astId": 31,
            "contract": "contracts/ArmadaReservations.sol:ArmadaReservations",
            "label": "members",
            "offset": 0,
            "slot": "0",
            "type": "t_mapping(t_address,t_bool)"
          },
          {
            "astId": 33,
            "contract": "contracts/ArmadaReservations.sol:ArmadaReservations",
            "label": "adminRole",
            "offset": 0,
            "slot": "1",
            "type": "t_bytes32"
          }
        ],
        "numberOfBytes": "64"
      },
      "t_struct(Set)9704_storage": {
        "encoding": "inplace",
        "label": "struct EnumerableSet.Set",
        "members": [
          {
            "astId": 9699,
            "contract": "contracts/ArmadaReservations.sol:ArmadaReservations",
            "label": "_values",
            "offset": 0,
            "slot": "0",
            "type": "t_array(t_bytes32)dyn_storage"
          },
          {
            "astId": 9703,
            "contract": "contracts/ArmadaReservations.sol:ArmadaReservations",
            "label": "_indexes",
            "offset": 0,
            "slot": "1",
            "type": "t_mapping(t_bytes32,t_uint256)"
          }
        ],
        "numberOfBytes": "64"
      },
      "t_uint256": {
        "encoding": "inplace",
        "label": "uint256",
        "numberOfBytes": "32"
      },
      "t_uint8": {
        "encoding": "inplace",
        "label": "uint8",
        "numberOfBytes": "1"
      }
    }
  }
}