{
  "address": "0x48b6250E5c1bbC61d0884Bd040Ddd7481E418C92",
  "abi": [
    {
      "anonymous": false,
      "inputs": [
        {
          "indexed": false,
          "internalType": "address",
          "name": "previousAdmin",
          "type": "address"
        },
        {
          "indexed": false,
          "internalType": "address",
          "name": "newAdmin",
          "type": "address"
        }
      ],
      "name": "AdminChanged",
      "type": "event"
    },
    {
      "anonymous": false,
      "inputs": [
        {
          "indexed": true,
          "internalType": "address",
          "name": "beacon",
          "type": "address"
        }
      ],
      "name": "BeaconUpgraded",
      "type": "event"
    },
    {
      "anonymous": false,
      "inputs": [
        {
          "indexed": false,
          "internalType": "uint8",
          "name": "version",
          "type": "uint8"
        }
      ],
      "name": "Initialized",
      "type": "event"
    },
    {
      "anonymous": false,
      "inputs": [
        {
          "indexed": true,
          "internalType": "bytes32",
          "name": "operatorId",
          "type": "bytes32"
        },
        {
          "indexed": false,
          "internalType": "uint256",
          "name": "oldBalance",
          "type": "uint256"
        },
        {
          "indexed": false,
          "internalType": "uint256",
          "name": "newBalance",
          "type": "uint256"
        }
      ],
      "name": "OperatorBalanceChanged",
      "type": "event"
    },
    {
      "anonymous": false,
      "inputs": [
        {
          "indexed": true,
          "internalType": "bytes32",
          "name": "operatorId",
          "type": "bytes32"
        },
        {
          "indexed": true,
          "internalType": "address",
          "name": "owner",
          "type": "address"
        },
        {
          "indexed": false,
          "internalType": "string",
          "name": "name",
          "type": "string"
        },
        {
          "indexed": false,
          "internalType": "string",
          "name": "email",
          "type": "string"
        }
      ],
      "name": "OperatorCreated",
      "type": "event"
    },
    {
      "anonymous": false,
      "inputs": [
        {
          "indexed": true,
          "internalType": "bytes32",
          "name": "operatorId",
          "type": "bytes32"
        },
        {
          "indexed": true,
          "internalType": "address",
          "name": "owner",
          "type": "address"
        },
        {
          "indexed": false,
          "internalType": "string",
          "name": "name",
          "type": "string"
        },
        {
          "indexed": false,
          "internalType": "string",
          "name": "email",
          "type": "string"
        }
      ],
      "name": "OperatorDeleted",
      "type": "event"
    },
    {
      "anonymous": false,
      "inputs": [
        {
          "indexed": true,
          "internalType": "bytes32",
          "name": "operatorId",
          "type": "bytes32"
        },
        {
          "indexed": true,
          "internalType": "address",
          "name": "oldOwner",
          "type": "address"
        },
        {
          "indexed": true,
          "internalType": "address",
          "name": "newOwner",
          "type": "address"
        }
      ],
      "name": "OperatorOwnerChanged",
      "type": "event"
    },
    {
      "anonymous": false,
      "inputs": [
        {
          "indexed": true,
          "internalType": "bytes32",
          "name": "operatorId",
          "type": "bytes32"
        },
        {
          "indexed": false,
          "internalType": "string",
          "name": "oldName",
          "type": "string"
        },
        {
          "indexed": false,
          "internalType": "string",
          "name": "oldEmail",
          "type": "string"
        },
        {
          "indexed": false,
          "internalType": "string",
          "name": "newName",
          "type": "string"
        },
        {
          "indexed": false,
          "internalType": "string",
          "name": "newEmail",
          "type": "string"
        }
      ],
      "name": "OperatorPropsChanged",
      "type": "event"
    },
    {
      "anonymous": false,
      "inputs": [
        {
          "indexed": true,
          "internalType": "bytes32",
          "name": "operatorId",
          "type": "bytes32"
        },
        {
          "indexed": false,
          "internalType": "uint256",
          "name": "oldStake",
          "type": "uint256"
        },
        {
          "indexed": false,
          "internalType": "uint256",
          "name": "newStake",
          "type": "uint256"
        }
      ],
      "name": "OperatorStakeChanged",
      "type": "event"
    },
    {
      "anonymous": false,
      "inputs": [
        {
          "indexed": false,
          "internalType": "address",
          "name": "account",
          "type": "address"
        }
      ],
      "name": "Paused",
      "type": "event"
    },
    {
      "anonymous": false,
      "inputs": [
        {
          "indexed": true,
          "internalType": "bytes32",
          "name": "role",
          "type": "bytes32"
        },
        {
          "indexed": true,
          "internalType": "bytes32",
          "name": "previousAdminRole",
          "type": "bytes32"
        },
        {
          "indexed": true,
          "internalType": "bytes32",
          "name": "newAdminRole",
          "type": "bytes32"
        }
      ],
      "name": "RoleAdminChanged",
      "type": "event"
    },
    {
      "anonymous": false,
      "inputs": [
        {
          "indexed": true,
          "internalType": "bytes32",
          "name": "role",
          "type": "bytes32"
        },
        {
          "indexed": true,
          "internalType": "address",
          "name": "account",
          "type": "address"
        },
        {
          "indexed": true,
          "internalType": "address",
          "name": "sender",
          "type": "address"
        }
      ],
      "name": "RoleGranted",
      "type": "event"
    },
    {
      "anonymous": false,
      "inputs": [
        {
          "indexed": true,
          "internalType": "bytes32",
          "name": "role",
          "type": "bytes32"
        },
        {
          "indexed": true,
          "internalType": "address",
          "name": "account",
          "type": "address"
        },
        {
          "indexed": true,
          "internalType": "address",
          "name": "sender",
          "type": "address"
        }
      ],
      "name": "RoleRevoked",
      "type": "event"
    },
    {
      "anonymous": false,
      "inputs": [
        {
          "indexed": false,
          "internalType": "address",
          "name": "account",
          "type": "address"
        }
      ],
      "name": "Unpaused",
      "type": "event"
    },
    {
      "anonymous": false,
      "inputs": [
        {
          "indexed": true,
          "internalType": "address",
          "name": "implementation",
          "type": "address"
        }
      ],
      "name": "Upgraded",
      "type": "event"
    },
    {
      "inputs": [],
      "name": "DEFAULT_ADMIN_ROLE",
      "outputs": [
        {
          "internalType": "bytes32",
          "name": "",
          "type": "bytes32"
        }
      ],
      "stateMutability": "view",
      "type": "function"
    },
    {
      "inputs": [],
      "name": "IMPORTER_ROLE",
      "outputs": [
        {
          "internalType": "bytes32",
          "name": "",
          "type": "bytes32"
        }
      ],
      "stateMutability": "view",
      "type": "function"
    },
    {
      "inputs": [
        {
          "internalType": "address",
          "name": "owner",
          "type": "address"
        },
        {
          "internalType": "string",
          "name": "name",
          "type": "string"
        },
        {
          "internalType": "string",
          "name": "email",
          "type": "string"
        }
      ],
      "name": "createOperator",
      "outputs": [
        {
          "internalType": "bytes32",
          "name": "operatorId",
          "type": "bytes32"
        }
      ],
      "stateMutability": "nonpayable",
      "type": "function"
    },
    {
      "inputs": [
        {
          "internalType": "bytes32",
          "name": "operatorId",
          "type": "bytes32"
        }
      ],
      "name": "deleteOperator",
      "outputs": [],
      "stateMutability": "nonpayable",
      "type": "function"
    },
    {
      "inputs": [
        {
          "internalType": "bytes32",
          "name": "operatorId",
          "type": "bytes32"
        },
        {
          "internalType": "uint256",
          "name": "amount",
          "type": "uint256"
        },
        {
          "internalType": "uint256",
          "name": "deadline",
          "type": "uint256"
        },
        {
          "internalType": "uint8",
          "name": "v",
          "type": "uint8"
        },
        {
          "internalType": "bytes32",
          "name": "r",
          "type": "bytes32"
        },
        {
          "internalType": "bytes32",
          "name": "s",
          "type": "bytes32"
        }
      ],
      "name": "depositOperatorBalance",
      "outputs": [],
      "stateMutability": "nonpayable",
      "type": "function"
    },
    {
      "inputs": [
        {
          "internalType": "bytes32",
          "name": "operatorId",
          "type": "bytes32"
        },
        {
          "internalType": "uint256",
          "name": "amount",
          "type": "uint256"
        },
        {
          "internalType": "uint256",
          "name": "deadline",
          "type": "uint256"
        },
        {
          "internalType": "uint8",
          "name": "v",
          "type": "uint8"
        },
        {
          "internalType": "bytes32",
          "name": "r",
          "type": "bytes32"
        },
        {
          "internalType": "bytes32",
          "name": "s",
          "type": "bytes32"
        }
      ],
      "name": "depositOperatorStake",
      "outputs": [],
      "stateMutability": "nonpayable",
      "type": "function"
    },
    {
      "inputs": [
        {
          "internalType": "bytes32",
          "name": "operatorId",
          "type": "bytes32"
        }
      ],
      "name": "getOperator",
      "outputs": [
        {
          "components": [
            {
              "internalType": "bytes32",
              "name": "id",
              "type": "bytes32"
            },
            {
              "internalType": "address",
              "name": "owner",
              "type": "address"
            },
            {
              "internalType": "string",
              "name": "name",
              "type": "string"
            },
            {
              "internalType": "string",
              "name": "email",
              "type": "string"
            },
            {
              "internalType": "uint256",
              "name": "stake",
              "type": "uint256"
            },
            {
              "internalType": "uint256",
              "name": "balance",
              "type": "uint256"
            }
          ],
          "internalType": "struct ArmadaOperator",
          "name": "",
          "type": "tuple"
        }
      ],
      "stateMutability": "view",
      "type": "function"
    },
    {
      "inputs": [],
      "name": "getOperatorCount",
      "outputs": [
        {
          "internalType": "uint256",
          "name": "",
          "type": "uint256"
        }
      ],
      "stateMutability": "view",
      "type": "function"
    },
    {
      "inputs": [
        {
          "internalType": "uint256",
          "name": "skip",
          "type": "uint256"
        },
        {
          "internalType": "uint256",
          "name": "size",
          "type": "uint256"
        }
      ],
      "name": "getOperators",
      "outputs": [
        {
          "components": [
            {
              "internalType": "bytes32",
              "name": "id",
              "type": "bytes32"
            },
            {
              "internalType": "address",
              "name": "owner",
              "type": "address"
            },
            {
              "internalType": "string",
              "name": "name",
              "type": "string"
            },
            {
              "internalType": "string",
              "name": "email",
              "type": "string"
            },
            {
              "internalType": "uint256",
              "name": "stake",
              "type": "uint256"
            },
            {
              "internalType": "uint256",
              "name": "balance",
              "type": "uint256"
            }
          ],
          "internalType": "struct ArmadaOperator[]",
          "name": "values",
          "type": "tuple[]"
        }
      ],
      "stateMutability": "view",
      "type": "function"
    },
    {
      "inputs": [],
      "name": "getRegistry",
      "outputs": [
        {
          "internalType": "contract ArmadaRegistry",
          "name": "",
          "type": "address"
        }
      ],
      "stateMutability": "view",
      "type": "function"
    },
    {
      "inputs": [
        {
          "internalType": "bytes32",
          "name": "role",
          "type": "bytes32"
        }
      ],
      "name": "getRoleAdmin",
      "outputs": [
        {
          "internalType": "bytes32",
          "name": "",
          "type": "bytes32"
        }
      ],
      "stateMutability": "view",
      "type": "function"
    },
    {
      "inputs": [],
      "name": "getStakePerNode",
      "outputs": [
        {
          "internalType": "uint256",
          "name": "",
          "type": "uint256"
        }
      ],
      "stateMutability": "view",
      "type": "function"
    },
    {
      "inputs": [
        {
          "internalType": "bytes32",
          "name": "role",
          "type": "bytes32"
        },
        {
          "internalType": "address",
          "name": "account",
          "type": "address"
        }
      ],
      "name": "grantRole",
      "outputs": [],
      "stateMutability": "nonpayable",
      "type": "function"
    },
    {
      "inputs": [
        {
          "internalType": "bytes32",
          "name": "role",
          "type": "bytes32"
        },
        {
          "internalType": "address",
          "name": "account",
          "type": "address"
        }
      ],
      "name": "hasRole",
      "outputs": [
        {
          "internalType": "bool",
          "name": "",
          "type": "bool"
        }
      ],
      "stateMutability": "view",
      "type": "function"
    },
    {
      "inputs": [
        {
          "internalType": "address[]",
          "name": "admins",
          "type": "address[]"
        },
        {
          "internalType": "contract ArmadaRegistry",
          "name": "registry",
          "type": "address"
        },
        {
          "internalType": "uint256",
          "name": "stakePerNode",
          "type": "uint256"
        },
        {
          "internalType": "bool",
          "name": "grantImporterRole",
          "type": "bool"
        }
      ],
      "name": "initialize",
      "outputs": [],
      "stateMutability": "nonpayable",
      "type": "function"
    },
    {
      "inputs": [],
      "name": "pause",
      "outputs": [],
      "stateMutability": "nonpayable",
      "type": "function"
    },
    {
      "inputs": [],
      "name": "paused",
      "outputs": [
        {
          "internalType": "bool",
          "name": "",
          "type": "bool"
        }
      ],
      "stateMutability": "view",
      "type": "function"
    },
    {
      "inputs": [],
      "name": "proxiableUUID",
      "outputs": [
        {
          "internalType": "bytes32",
          "name": "",
          "type": "bytes32"
        }
      ],
      "stateMutability": "view",
      "type": "function"
    },
    {
      "inputs": [
        {
          "internalType": "bytes32",
          "name": "role",
          "type": "bytes32"
        },
        {
          "internalType": "address",
          "name": "account",
          "type": "address"
        }
      ],
      "name": "renounceRole",
      "outputs": [],
      "stateMutability": "nonpayable",
      "type": "function"
    },
    {
      "inputs": [
        {
          "internalType": "bytes32",
          "name": "nodeId",
          "type": "bytes32"
        },
        {
          "internalType": "address",
          "name": "sender",
          "type": "address"
        }
      ],
      "name": "requireTopologyNode",
      "outputs": [],
      "stateMutability": "nonpayable",
      "type": "function"
    },
    {
      "inputs": [
        {
          "internalType": "bytes32",
          "name": "role",
          "type": "bytes32"
        },
        {
          "internalType": "address",
          "name": "account",
          "type": "address"
        }
      ],
      "name": "revokeRole",
      "outputs": [],
      "stateMutability": "nonpayable",
      "type": "function"
    },
    {
      "inputs": [
        {
          "internalType": "bytes32",
          "name": "operatorId",
          "type": "bytes32"
        },
        {
          "internalType": "uint256",
          "name": "decrease",
          "type": "uint256"
        },
        {
          "internalType": "uint256",
          "name": "increase",
          "type": "uint256"
        }
      ],
      "name": "setOperatorBalanceImpl",
      "outputs": [],
      "stateMutability": "nonpayable",
      "type": "function"
    },
    {
      "inputs": [
        {
          "internalType": "bytes32",
          "name": "operatorId",
          "type": "bytes32"
        },
        {
          "internalType": "address",
          "name": "owner",
          "type": "address"
        }
      ],
      "name": "setOperatorOwner",
      "outputs": [],
      "stateMutability": "nonpayable",
      "type": "function"
    },
    {
      "inputs": [
        {
          "internalType": "bytes32",
          "name": "operatorId",
          "type": "bytes32"
        },
        {
          "internalType": "string",
          "name": "name",
          "type": "string"
        },
        {
          "internalType": "string",
          "name": "email",
          "type": "string"
        }
      ],
      "name": "setOperatorProps",
      "outputs": [],
      "stateMutability": "nonpayable",
      "type": "function"
    },
    {
      "inputs": [
        {
          "internalType": "uint256",
          "name": "stake",
          "type": "uint256"
        }
      ],
      "name": "setStakePerNode",
      "outputs": [],
      "stateMutability": "nonpayable",
      "type": "function"
    },
    {
      "inputs": [
        {
          "internalType": "bytes4",
          "name": "interfaceId",
          "type": "bytes4"
        }
      ],
      "name": "supportsInterface",
      "outputs": [
        {
          "internalType": "bool",
          "name": "",
          "type": "bool"
        }
      ],
      "stateMutability": "view",
      "type": "function"
    },
    {
      "inputs": [],
      "name": "unpause",
      "outputs": [],
      "stateMutability": "nonpayable",
      "type": "function"
    },
    {
      "inputs": [
        {
          "components": [
            {
              "internalType": "bytes32",
              "name": "id",
              "type": "bytes32"
            },
            {
              "internalType": "address",
              "name": "owner",
              "type": "address"
            },
            {
              "internalType": "string",
              "name": "name",
              "type": "string"
            },
            {
              "internalType": "string",
              "name": "email",
              "type": "string"
            },
            {
              "internalType": "uint256",
              "name": "stake",
              "type": "uint256"
            },
            {
              "internalType": "uint256",
              "name": "balance",
              "type": "uint256"
            }
          ],
          "internalType": "struct ArmadaOperator[]",
          "name": "operators",
          "type": "tuple[]"
        },
        {
          "internalType": "bool",
          "name": "revokeImporterRole",
          "type": "bool"
        }
      ],
      "name": "unsafeImportData",
      "outputs": [],
      "stateMutability": "nonpayable",
      "type": "function"
    },
    {
      "inputs": [
        {
          "internalType": "uint256",
          "name": "skip",
          "type": "uint256"
        },
        {
          "internalType": "uint256",
          "name": "size",
          "type": "uint256"
        },
        {
          "internalType": "uint256",
          "name": "mul",
          "type": "uint256"
        },
        {
          "internalType": "uint256",
          "name": "div",
          "type": "uint256"
        }
      ],
      "name": "unsafeSetBalances",
      "outputs": [],
      "stateMutability": "nonpayable",
      "type": "function"
    },
    {
      "inputs": [
        {
          "internalType": "contract ArmadaRegistry",
          "name": "registry",
          "type": "address"
        }
      ],
      "name": "unsafeSetRegistry",
      "outputs": [],
      "stateMutability": "nonpayable",
      "type": "function"
    },
    {
      "inputs": [
        {
          "internalType": "address",
          "name": "newImplementation",
          "type": "address"
        }
      ],
      "name": "upgradeTo",
      "outputs": [],
      "stateMutability": "nonpayable",
      "type": "function"
    },
    {
      "inputs": [
        {
          "internalType": "address",
          "name": "newImplementation",
          "type": "address"
        },
        {
          "internalType": "bytes",
          "name": "data",
          "type": "bytes"
        }
      ],
      "name": "upgradeToAndCall",
      "outputs": [],
      "stateMutability": "payable",
      "type": "function"
    },
    {
      "inputs": [
        {
          "internalType": "bytes32",
          "name": "operatorId",
          "type": "bytes32"
        },
        {
          "internalType": "uint256",
          "name": "amount",
          "type": "uint256"
        },
        {
          "internalType": "address",
          "name": "to",
          "type": "address"
        }
      ],
      "name": "withdrawOperatorBalance",
      "outputs": [],
      "stateMutability": "nonpayable",
      "type": "function"
    },
    {
      "inputs": [
        {
          "internalType": "bytes32",
          "name": "operatorId",
          "type": "bytes32"
        },
        {
          "internalType": "uint256",
          "name": "amount",
          "type": "uint256"
        },
        {
          "internalType": "address",
          "name": "to",
          "type": "address"
        }
      ],
      "name": "withdrawOperatorStake",
      "outputs": [],
      "stateMutability": "nonpayable",
      "type": "function"
    }
  ],
  "numDeployments": 4,
  "solcInputHash": "44c0d689f88b0ac620a4c6d81540f0fb",
  "bytecode": "0x60a06040523060805234801561001457600080fd5b50608051614f8061004c600039600081816116b4015281816116f401528181611fc80152818161200801526120970152614f806000f3fe6080604052600436106101f95760003560e01c80635c975abb1161010d578063a96a5f94116100a0578063e90705741161006f578063e90705741461059f578063ea4dd2b9146105bf578063ef96e2cb146105ec578063f7d1f6d81461060c578063fd6313fc1461062257600080fd5b8063a96a5f9414610512578063b9a2adf01461053f578063be0396381461055f578063d547741f1461057f57600080fd5b80638dd0d6a8116100dc5780638dd0d6a81461049d57806391d14854146104bd578063a217fddf146104dd578063a5f83733146104f257600080fd5b80635c975abb1461042e5780636fa2a067146104465780636ffa072e146104685780638456cb591461048857600080fd5b806336568abe116101905780633f4ba83a1161015f5780633f4ba83a146103a85780634d60dead146103bd5780634f1ef286146103dd57806352d1902d146103f05780635ab1bd531461040557600080fd5b806336568abe146103285780633659cfe61461034857806339b035711461036857806339d7a3ef1461038857600080fd5b806322aba718116101cc57806322aba71814610298578063248a9ca3146102b85780632f2ff15d146102e85780632fd3f4ff1461030857600080fd5b806301ffc9a7146101fe578063059c1cf7146102335780631a4a7c61146102555780631c692cc614610278575b600080fd5b34801561020a57600080fd5b5061021e610219366004613fea565b610642565b60405190151581526020015b60405180910390f35b34801561023f57600080fd5b5061025361024e366004614029565b610679565b005b34801561026157600080fd5b5061026a610abd565b60405190815260200161022a565b34801561028457600080fd5b5061026a6102933660046140aa565b610acf565b3480156102a457600080fd5b506102536102b336600461412c565b610e85565b3480156102c457600080fd5b5061026a6102d336600461415c565b60009081526065602052604090206001015490565b3480156102f457600080fd5b5061025361030336600461412c565b611067565b34801561031457600080fd5b5061025361032336600461415c565b611091565b34801561033457600080fd5b5061025361034336600461412c565b61162b565b34801561035457600080fd5b50610253610363366004614175565b6116a9565b34801561037457600080fd5b506102536103833660046141e4565b611789565b34801561039457600080fd5b506102536103a3366004614257565b61197e565b3480156103b457600080fd5b50610253611cd9565b3480156103c957600080fd5b506102536103d836600461428d565b611d0a565b6102536103eb36600461437c565b611fbd565b3480156103fc57600080fd5b5061026a61208a565b34801561041157600080fd5b5061015f546040516001600160a01b03909116815260200161022a565b34801561043a57600080fd5b5060975460ff1661021e565b34801561045257600080fd5b5061026a600080516020614f2b83398151915281565b34801561047457600080fd5b5061025361048336600461440e565b61213d565b34801561049457600080fd5b5061025361247f565b3480156104a957600080fd5b506102536104b836600461443a565b6124ae565b3480156104c957600080fd5b5061021e6104d836600461412c565b6125b4565b3480156104e957600080fd5b5061026a600081565b3480156104fe57600080fd5b5061025361050d366004614029565b6125df565b34801561051e57600080fd5b5061053261052d36600461415c565b612901565b60405161022a919061452f565b34801561054b57600080fd5b5061025361055a366004614175565b612a9f565b34801561056b57600080fd5b5061025361057a36600461428d565b612ae9565b34801561058b57600080fd5b5061025361059a36600461412c565b612d8a565b3480156105ab57600080fd5b506102536105ba36600461415c565b612daf565b3480156105cb57600080fd5b506105df6105da366004614542565b612ddc565b60405161022a9190614564565b3480156105f857600080fd5b5061025361060736600461412c565b613027565b34801561061857600080fd5b506101605461026a565b34801561062e57600080fd5b5061025361063d3660046145c6565b61320b565b60006001600160e01b03198216637965db0b60e01b148061067357506301ffc9a760e01b6001600160e01b03198316145b92915050565b600260c95414156106d15760405162461bcd60e51b815260206004820152601f60248201527f5265656e7472616e637947756172643a207265656e7472616e742063616c6c0060448201526064015b60405180910390fd5b600260c95560008381526101616020526040902080548491906107065760405162461bcd60e51b81526004016106c890614611565b60018101546001600160a01b031633146107325760405162461bcd60e51b81526004016106c89061463b565b61015f60009054906101000a90046001600160a01b03166001600160a01b031663bb1f47406040518163ffffffff1660e01b8152600401600060405180830381600087803b15801561078357600080fd5b505af1158015610797573d6000803e3d6000fd5b505050506107a760975460ff1690565b156107c45760405162461bcd60e51b81526004016106c890614661565b60008581526101616020526040902080546107e1576107e161468b565b61015f546040805163714ac0d560e11b815290516000926001600160a01b03169163e29581aa916004808301926020929190829003018186803b15801561082757600080fd5b505afa15801561083b573d6000803e3d6000fd5b505050506040513d601f19601f8201168201806040525081019061085f91906146a1565b6101605460405163f0a9e52760e01b8152600481018a90526000602482018190529293506001600160a01b0384169063f0a9e5279060440160206040518083038186803b1580156108af57600080fd5b505afa1580156108c3573d6000803e3d6000fd5b505050506040513d601f19601f820116820180604052508101906108e791906146be565b6108f191906146ed565b905080878460040154610904919061470c565b10156109455760405162461bcd60e51b815260206004820152601060248201526f6e6f7420656e6f756768207374616b6560801b60448201526064016106c8565b600483018054908890600061095a838561470c565b909155505061015f54604080516321df0da760e01b815290516001600160a01b03909216916321df0da791600480820192602092909190829003018186803b1580156109a557600080fd5b505afa1580156109b9573d6000803e3d6000fd5b505050506040513d601f19601f820116820180604052508101906109dd91906146a1565b61015f546040516323b872dd60e01b81526001600160a01b03928316926323b872dd92610a13929116908b908d90600401614723565b602060405180830381600087803b158015610a2d57600080fd5b505af1158015610a41573d6000803e3d6000fd5b505050506040513d601f19601f82011682018060405250810190610a659190614752565b50887fff347b3ef13668fb2b608008fa7144e3a786de63377f6eb766ab91cf1ab9fe99828660040154604051610aa5929190918252602082015260400190565b60405180910390a25050600160c95550505050505050565b6000610aca61016261333c565b905090565b6000610adb81336125b4565b610af75760405162461bcd60e51b81526004016106c89061476f565b61015f60009054906101000a90046001600160a01b03166001600160a01b031663bb1f47406040518163ffffffff1660e01b8152600401600060405180830381600087803b158015610b4857600080fd5b505af1158015610b5c573d6000803e3d6000fd5b50505050610b6c60975460ff1690565b15610b895760405162461bcd60e51b81526004016106c890614661565b83610bc35760405162461bcd60e51b815260206004820152600a602482015269656d707479206e616d6560b01b60448201526064016106c8565b610100841115610c055760405162461bcd60e51b815260206004820152600d60248201526c6e616d6520746f6f206c6f6e6760981b60448201526064016106c8565b610100821115610c485760405162461bcd60e51b815260206004820152600e60248201526d656d61696c20746f6f206c6f6e6760901b60448201526064016106c8565b61015f60009054906101000a90046001600160a01b03166001600160a01b03166379a6a3a56040518163ffffffff1660e01b8152600401602060405180830381600087803b158015610c9957600080fd5b505af1158015610cad573d6000803e3d6000fd5b505050506040513d601f19601f82011682018060405250810190610cd191906146be565b604051602001610ce391815260200190565b6040516020818303038152906040528051906020012090506040518060c00160405280828152602001876001600160a01b0316815260200186868080601f016020809104026020016040519081016040528093929190818152602001838380828437600092019190915250505090825250604080516020601f87018190048102820181019092528581529181019190869086908190840183828082843760009201829052509385525050506020808301829052604092830182905284825261016181529082902083518155838201516001820180546001600160a01b0319166001600160a01b03909216919091179055918301518051610de99260028501920190613e61565b5060608201518051610e05916003840191602090910190613e61565b506080820151600482015560a090910151600590910155610e2861016282613346565b610e3457610e3461468b565b856001600160a01b0316817fb69d73b1d17f5aeee20a448e7c6b20e50bff49b8b42a4cd1c7bad3ba9151328587878787604051610e7494939291906147bb565b60405180910390a395945050505050565b6000828152610161602052604090208054839190610eb55760405162461bcd60e51b81526004016106c890614611565b610ec06000336125b4565b80610ed7575060018101546001600160a01b031633145b610f1b5760405162461bcd60e51b81526020600482015260156024820152743737ba1030b236b4b71037b91037b832b930ba37b960591b60448201526064016106c8565b61015f60009054906101000a90046001600160a01b03166001600160a01b031663bb1f47406040518163ffffffff1660e01b8152600401600060405180830381600087803b158015610f6c57600080fd5b505af1158015610f80573d6000803e3d6000fd5b50505050610f9060975460ff1690565b15610fad5760405162461bcd60e51b81526004016106c890614661565b6001600160a01b038316610ff05760405162461bcd60e51b815260206004820152600a6024820152693d32b9379037bbb732b960b11b60448201526064016106c8565b600084815261016160205260409020805461100d5761100d61468b565b6001810180546001600160a01b038681166001600160a01b03198316811790935560405191169190829088907fcf0cd5f1c87e8fdf7da54eae19fcf4bc1c7efb862da39f2ec343f964433cf12990600090a4505050505050565b60008281526065602052604090206001015461108281613359565b61108c8383613363565b505050565b61109c6000336125b4565b6110b85760405162461bcd60e51b81526004016106c89061476f565b61015f60009054906101000a90046001600160a01b03166001600160a01b031663bb1f47406040518163ffffffff1660e01b8152600401600060405180830381600087803b15801561110957600080fd5b505af115801561111d573d6000803e3d6000fd5b5050505061112d60975460ff1690565b1561114a5760405162461bcd60e51b81526004016106c890614661565b600081815261016160209081526040808320815160c0810183528154815260018201546001600160a01b0316938101939093526002810180549192840191611191906147ed565b80601f01602080910402602001604051908101604052809291908181526020018280546111bd906147ed565b801561120a5780601f106111df5761010080835404028352916020019161120a565b820191906000526020600020905b8154815290600101906020018083116111ed57829003601f168201915b50505050508152602001600382018054611223906147ed565b80601f016020809104026020016040519081016040528092919081815260200182805461124f906147ed565b801561129c5780601f106112715761010080835404028352916020019161129c565b820191906000526020600020905b81548152906001019060200180831161127f57829003601f168201915b50505091835250506004820154602082015260059091015460409091015280519091506112db5760405162461bcd60e51b81526004016106c890614611565b61015f546040805163714ac0d560e11b815290516000926001600160a01b03169163e29581aa916004808301926020929190829003018186803b15801561132157600080fd5b505afa158015611335573d6000803e3d6000fd5b505050506040513d601f19601f8201168201806040525081019061135991906146a1565b60405163f0a9e52760e01b815260048101859052600160248201529091506001600160a01b0382169063f0a9e5279060440160206040518083038186803b1580156113a357600080fd5b505afa1580156113b7573d6000803e3d6000fd5b505050506040513d601f19601f820116820180604052508101906113db91906146be565b1561141d5760405162461bcd60e51b81526020600482015260126024820152716f70657261746f7220686173206e6f64657360701b60448201526064016106c8565b60405163f0a9e52760e01b815260048101849052600060248201526001600160a01b0382169063f0a9e5279060440160206040518083038186803b15801561146457600080fd5b505afa158015611478573d6000803e3d6000fd5b505050506040513d601f19601f8201168201806040525081019061149c91906146be565b156114de5760405162461bcd60e51b81526020600482015260126024820152716f70657261746f7220686173206e6f64657360701b60448201526064016106c8565b6080820151156115255760405162461bcd60e51b81526020600482015260126024820152716f70657261746f7220686173207374616b6560701b60448201526064016106c8565b60a08201511561156e5760405162461bcd60e51b81526020600482015260146024820152736f70657261746f72206861732062616c616e636560601b60448201526064016106c8565b6000838152610161602052604081208181556001810180546001600160a01b0319169055906115a06002830182613ee5565b6115ae600383016000613ee5565b506000600482018190556005909101556115ca610162846133e9565b6115d6576115d661468b565b81602001516001600160a01b0316837f47a82ad5da4f4bfefb8f774802d2eee3406e1275298e00871e43b021b6d7a8d58460400151856060015160405161161e929190614828565b60405180910390a3505050565b6001600160a01b038116331461169b5760405162461bcd60e51b815260206004820152602f60248201527f416363657373436f6e74726f6c3a2063616e206f6e6c792072656e6f756e636560448201526e103937b632b9903337b91039b2b63360891b60648201526084016106c8565b6116a582826133f5565b5050565b306001600160a01b037f00000000000000000000000000000000000000000000000000000000000000001614156116f25760405162461bcd60e51b81526004016106c89061484d565b7f00000000000000000000000000000000000000000000000000000000000000006001600160a01b031661173b600080516020614ee4833981519152546001600160a01b031690565b6001600160a01b0316146117615760405162461bcd60e51b81526004016106c890614899565b61176a8161345c565b6040805160008082526020820190925261178691839190613483565b50565b600061179560016135fd565b905080156117ad576000805461ff0019166101001790555b6117b561368a565b6117bd61368a565b6117c561368a565b6117cd61368a565b6117d56136b1565b6117dd6136e0565b6117e561368a565b61015f80546001600160a01b0319166001600160a01b038616179055610160839055846118405760405162461bcd60e51b81526020600482015260096024820152686e6f2061646d696e7360b81b60448201526064016106c8565b60005b858110156118f957600087878381811061185f5761185f6148e5565b90506020020160208101906118749190614175565b6001600160a01b031614156118b85760405162461bcd60e51b815260206004820152600a6024820152693d32b9379030b236b4b760b11b60448201526064016106c8565b6118e960008888848181106118cf576118cf6148e5565b90506020020160208101906118e49190614175565b613363565b6118f2816148fb565b9050611843565b50811561193057611918600080516020614f2b83398151915232613363565b611930600080516020614f2b8339815191528061370f565b8015611976576000805461ff0019169055604051600181527f7f26b83ff96e1f2b6a682f133852f6798a09c465da95921460cefb38474024989060200160405180910390a15b505050505050565b60008581526101616020526040902080548691906119ae5760405162461bcd60e51b81526004016106c890614611565b60018101546001600160a01b031633146119da5760405162461bcd60e51b81526004016106c89061463b565b61015f60009054906101000a90046001600160a01b03166001600160a01b031663bb1f47406040518163ffffffff1660e01b8152600401600060405180830381600087803b158015611a2b57600080fd5b505af1158015611a3f573d6000803e3d6000fd5b50505050611a4f60975460ff1690565b15611a6c5760405162461bcd60e51b81526004016106c890614661565b84611aa65760405162461bcd60e51b815260206004820152600a602482015269656d707479206e616d6560b01b60448201526064016106c8565b610100851115611ae85760405162461bcd60e51b815260206004820152600d60248201526c6e616d6520746f6f206c6f6e6760981b60448201526064016106c8565b610100831115611b2b5760405162461bcd60e51b815260206004820152600e60248201526d656d61696c20746f6f206c6f6e6760901b60448201526064016106c8565b6000878152610161602052604090208054611b4857611b4861468b565b6000816002018054611b59906147ed565b80601f0160208091040260200160405190810160405280929190818152602001828054611b85906147ed565b8015611bd25780601f10611ba757610100808354040283529160200191611bd2565b820191906000526020600020905b815481529060010190602001808311611bb557829003601f168201915b505050505090506000826003018054611bea906147ed565b80601f0160208091040260200160405190810160405280929190818152602001828054611c16906147ed565b8015611c635780601f10611c3857610100808354040283529160200191611c63565b820191906000526020600020905b815481529060010190602001808311611c4657829003601f168201915b50939450611c7b935050506002850190508a8a613f1f565b50611c8a600384018888613f1f565b50897f42478da6f365394de83444b3d922d94b6aec68bcf0961b9acd1fe05ed84c908a83838c8c8c8c604051611cc596959493929190614916565b60405180910390a250505050505050505050565b611ce46000336125b4565b611d005760405162461bcd60e51b81526004016106c89061476f565b611d0861375a565b565b60975460ff1615611d2d5760405162461bcd60e51b81526004016106c890614661565b6000868152610161602052604090208054611d5a5760405162461bcd60e51b81526004016106c890614611565b6005810180549087906000611d6f8385614972565b909155505061015f5460408051631bf01e9b60e01b815290516001600160a01b0390921691631bf01e9b91600480820192602092909190829003018186803b158015611dba57600080fd5b505afa158015611dce573d6000803e3d6000fd5b505050506040513d601f19601f82011682018060405250810190611df291906146a1565b6001600160a01b031663d505accf33308a8a8a8a8a6040518863ffffffff1660e01b8152600401611e29979695949392919061498a565b600060405180830381600087803b158015611e4357600080fd5b505af1158015611e57573d6000803e3d6000fd5b5050505061015f60009054906101000a90046001600160a01b03166001600160a01b0316631bf01e9b6040518163ffffffff1660e01b815260040160206040518083038186803b158015611eaa57600080fd5b505afa158015611ebe573d6000803e3d6000fd5b505050506040513d601f19601f82011682018060405250810190611ee291906146a1565b61015f546040516323b872dd60e01b81526001600160a01b03928316926323b872dd92611f19923392909116908c90600401614723565b602060405180830381600087803b158015611f3357600080fd5b505af1158015611f47573d6000803e3d6000fd5b505050506040513d601f19601f82011682018060405250810190611f6b9190614752565b50877f785b2848c05c2f0d9bfe93d39a82b1f786de7840ab58adf840e13b98ed158232828460050154604051611fab929190918252602082015260400190565b60405180910390a25050505050505050565b306001600160a01b037f00000000000000000000000000000000000000000000000000000000000000001614156120065760405162461bcd60e51b81526004016106c89061484d565b7f00000000000000000000000000000000000000000000000000000000000000006001600160a01b031661204f600080516020614ee4833981519152546001600160a01b031690565b6001600160a01b0316146120755760405162461bcd60e51b81526004016106c890614899565b61207e8261345c565b6116a582826001613483565b6000306001600160a01b037f0000000000000000000000000000000000000000000000000000000000000000161461212a5760405162461bcd60e51b815260206004820152603860248201527f555550535570677261646561626c653a206d757374206e6f742062652063616c60448201527f6c6564207468726f7567682064656c656761746563616c6c000000000000000060648201526084016106c8565b50600080516020614ee483398151915290565b61015f60009054906101000a90046001600160a01b03166001600160a01b031663299372686040518163ffffffff1660e01b815260040160206040518083038186803b15801561218c57600080fd5b505afa1580156121a0573d6000803e3d6000fd5b505050506040513d601f19601f820116820180604052508101906121c491906146a1565b6001600160a01b0316336001600160a01b0316148061227a575061015f60009054906101000a90046001600160a01b03166001600160a01b031663e29581aa6040518163ffffffff1660e01b815260040160206040518083038186803b15801561222d57600080fd5b505afa158015612241573d6000803e3d6000fd5b505050506040513d601f19601f8201168201806040525081019061226591906146a1565b6001600160a01b0316336001600160a01b0316145b8061231c575061015f60009054906101000a90046001600160a01b03166001600160a01b031663dcc601286040518163ffffffff1660e01b815260040160206040518083038186803b1580156122cf57600080fd5b505afa1580156122e3573d6000803e3d6000fd5b505050506040513d601f19601f8201168201806040525081019061230791906146a1565b6001600160a01b0316336001600160a01b0316145b806123be575061015f60009054906101000a90046001600160a01b03166001600160a01b0316639c200b886040518163ffffffff1660e01b815260040160206040518083038186803b15801561237157600080fd5b505afa158015612385573d6000803e3d6000fd5b505050506040513d601f19601f820116820180604052508101906123a991906146a1565b6001600160a01b0316336001600160a01b0316145b6123f55760405162461bcd60e51b81526020600482015260086024820152671b9bdd081a5b5c1b60c21b60448201526064016106c8565b60975460ff16156124185760405162461bcd60e51b81526004016106c890614661565b60008381526101616020526040902080546124455760405162461bcd60e51b81526004016106c890614611565b82816005016000828254612459919061470c565b92505081905550818160050160008282546124749190614972565b909155505050505050565b61248a6000336125b4565b6124a65760405162461bcd60e51b81526004016106c89061476f565b611d086137ed565b6124b96000336125b4565b6124d55760405162461bcd60e51b81526004016106c89061476f565b8161250d5760405162461bcd60e51b81526020600482015260086024820152671e995c9bc81b5d5b60c21b60448201526064016106c8565b600061251a61016261333c565b9050600061253f85878411612530576000613845565b61253a888561470c565b613845565b905060005b818110156125ab5760006101618161256861255f858c614972565b6101629061385b565b815260200190815260200160002090508486826005015461258991906146ed565b61259391906149cb565b600590910155806125a3816148fb565b915050612544565b50505050505050565b60009182526065602090815260408084206001600160a01b0393909316845291905290205460ff1690565b600260c95414156126325760405162461bcd60e51b815260206004820152601f60248201527f5265656e7472616e637947756172643a207265656e7472616e742063616c6c0060448201526064016106c8565b600260c95560008381526101616020526040902080548491906126675760405162461bcd60e51b81526004016106c890614611565b60018101546001600160a01b031633146126935760405162461bcd60e51b81526004016106c89061463b565b61015f60009054906101000a90046001600160a01b03166001600160a01b031663bb1f47406040518163ffffffff1660e01b8152600401600060405180830381600087803b1580156126e457600080fd5b505af11580156126f8573d6000803e3d6000fd5b5050505061270860975460ff1690565b156127255760405162461bcd60e51b81526004016106c890614661565b60008581526101616020526040902080546127425761274261468b565b848160050154101561278b5760405162461bcd60e51b81526020600482015260126024820152716e6f7420656e6f7567682062616c616e636560701b60448201526064016106c8565b60058101805490869060006127a0838561470c565b909155505061015f5460408051631bf01e9b60e01b815290516001600160a01b0390921691631bf01e9b91600480820192602092909190829003018186803b1580156127eb57600080fd5b505afa1580156127ff573d6000803e3d6000fd5b505050506040513d601f19601f8201168201806040525081019061282391906146a1565b61015f546040516323b872dd60e01b81526001600160a01b03928316926323b872dd926128599291169089908b90600401614723565b602060405180830381600087803b15801561287357600080fd5b505af1158015612887573d6000803e3d6000fd5b505050506040513d601f19601f820116820180604052508101906128ab9190614752565b50867f785b2848c05c2f0d9bfe93d39a82b1f786de7840ab58adf840e13b98ed1582328284600501546040516128eb929190918252602082015260400190565b60405180910390a25050600160c9555050505050565b612909613f93565b60008281526101616020526040902080546129365760405162461bcd60e51b81526004016106c890614611565b6040805160c0810182528254815260018301546001600160a01b0316602082015260028301805491928492908401919061296f906147ed565b80601f016020809104026020016040519081016040528092919081815260200182805461299b906147ed565b80156129e85780601f106129bd576101008083540402835291602001916129e8565b820191906000526020600020905b8154815290600101906020018083116129cb57829003601f168201915b50505050508152602001600382018054612a01906147ed565b80601f0160208091040260200160405190810160405280929190818152602001828054612a2d906147ed565b8015612a7a5780601f10612a4f57610100808354040283529160200191612a7a565b820191906000526020600020905b815481529060010190602001808311612a5d57829003601f168201915b5050505050815260200160048201548152602001600582015481525050915050919050565b612aaa6000336125b4565b612ac65760405162461bcd60e51b81526004016106c89061476f565b61015f80546001600160a01b0319166001600160a01b0392909216919091179055565b60975460ff1615612b0c5760405162461bcd60e51b81526004016106c890614661565b6000868152610161602052604090208054612b395760405162461bcd60e51b81526004016106c890614611565b6004810180549087906000612b4e8385614972565b909155505061015f54604080516321df0da760e01b815290516001600160a01b03909216916321df0da791600480820192602092909190829003018186803b158015612b9957600080fd5b505afa158015612bad573d6000803e3d6000fd5b505050506040513d601f19601f82011682018060405250810190612bd191906146a1565b6001600160a01b031663d505accf33308a8a8a8a8a6040518863ffffffff1660e01b8152600401612c08979695949392919061498a565b600060405180830381600087803b158015612c2257600080fd5b505af1158015612c36573d6000803e3d6000fd5b5050505061015f60009054906101000a90046001600160a01b03166001600160a01b03166321df0da76040518163ffffffff1660e01b815260040160206040518083038186803b158015612c8957600080fd5b505afa158015612c9d573d6000803e3d6000fd5b505050506040513d601f19601f82011682018060405250810190612cc191906146a1565b61015f546040516323b872dd60e01b81526001600160a01b03928316926323b872dd92612cf8923392909116908c90600401614723565b602060405180830381600087803b158015612d1257600080fd5b505af1158015612d26573d6000803e3d6000fd5b505050506040513d601f19601f82011682018060405250810190612d4a9190614752565b50877fff347b3ef13668fb2b608008fa7144e3a786de63377f6eb766ab91cf1ab9fe99828460040154604051611fab929190918252602082015260400190565b600082815260656020526040902060010154612da581613359565b61108c83836133f5565b612dba6000336125b4565b612dd65760405162461bcd60e51b81526004016106c89061476f565b61016055565b60606000612deb61016261333c565b90506000612e0b84868411612e01576000613845565b61253a878561470c565b9050806001600160401b03811115612e2557612e256142e6565b604051908082528060200260200182016040528015612e5e57816020015b612e4b613f93565b815260200190600190039081612e435790505b50925060005b8181101561301e576101616000612e7e61255f848a614972565b81526020808201929092526040908101600020815160c0810183528154815260018201546001600160a01b0316938101939093526002810180549192840191612ec6906147ed565b80601f0160208091040260200160405190810160405280929190818152602001828054612ef2906147ed565b8015612f3f5780601f10612f1457610100808354040283529160200191612f3f565b820191906000526020600020905b815481529060010190602001808311612f2257829003601f168201915b50505050508152602001600382018054612f58906147ed565b80601f0160208091040260200160405190810160405280929190818152602001828054612f84906147ed565b8015612fd15780601f10612fa657610100808354040283529160200191612fd1565b820191906000526020600020905b815481529060010190602001808311612fb457829003601f168201915b5050505050815260200160048201548152602001600582015481525050848281518110613000576130006148e5565b60200260200101819052508080613016906148fb565b915050612e64565b50505092915050565b61015f546040805163714ac0d560e11b815290516000926001600160a01b03169163e29581aa916004808301926020929190829003018186803b15801561306d57600080fd5b505afa158015613081573d6000803e3d6000fd5b505050506040513d601f19601f820116820180604052508101906130a591906146a1565b604051632864a37f60e11b8152600481018590529091506000906001600160a01b038316906350c946fe9060240160006040518083038186803b1580156130eb57600080fd5b505afa1580156130ff573d6000803e3d6000fd5b505050506040513d6000823e601f3d908101601f191682016040526131279190810190614aa9565b9050806080015161316e5760405162461bcd60e51b81526020600482015260116024820152706e6f7420746f706f6c6f6779206e6f646560781b60448201526064016106c8565b60208082015160009081526101619091526040902080546131915761319161468b565b6001600160a01b0384166131d55760405162461bcd60e51b815260206004820152600b60248201526a3d32b9379039b2b73232b960a91b60448201526064016106c8565b60018101546001600160a01b038581169116146132045760405162461bcd60e51b81526004016106c89061463b565b5050505050565b600080516020614f2b83398151915261322381613359565b60005b8381101561331757848482818110613240576132406148e5565b90506020028101906132529190614b95565b6101616000878785818110613269576132696148e5565b905060200281019061327b9190614b95565b35815260208101919091526040016000206132968282614d00565b9050506132ca8585838181106132ae576132ae6148e5565b90506020028101906132c09190614b95565b6101629035613346565b6133055760405162461bcd60e51b815260206004820152600c60248201526b191d5c1b1a58d85d19481a5960a21b60448201526064016106c8565b8061330f816148fb565b915050613226565b50811561333657613336600080516020614f2b833981519152336133f5565b50505050565b6000610673825490565b60006133528383613867565b9392505050565b61178681336138b6565b61336d82826125b4565b6116a55760008281526065602090815260408083206001600160a01b03851684529091529020805460ff191660011790556133a53390565b6001600160a01b0316816001600160a01b0316837f2f8788117e7eff1d82e926ec794901d17c78024a50270940304540a733656f0d60405160405180910390a45050565b6000613352838361391a565b6133ff82826125b4565b156116a55760008281526065602090815260408083206001600160a01b0385168085529252808320805460ff1916905551339285917ff6391f5c32d9c69d2a47ea670b442974b53935d1edc7fd64eb21e047a839171b9190a45050565b6134676000336125b4565b6117865760405162461bcd60e51b81526004016106c89061476f565b7f4910fdfa16fed3260ed0e7147f7cc6da11a60208b5b9406d12a635614ffd91435460ff16156134b65761108c83613a0d565b826001600160a01b03166352d1902d6040518163ffffffff1660e01b815260040160206040518083038186803b1580156134ef57600080fd5b505afa92505050801561351f575060408051601f3d908101601f1916820190925261351c918101906146be565b60015b6135825760405162461bcd60e51b815260206004820152602e60248201527f45524331393637557067726164653a206e657720696d706c656d656e7461746960448201526d6f6e206973206e6f74205555505360901b60648201526084016106c8565b600080516020614ee483398151915281146135f15760405162461bcd60e51b815260206004820152602960248201527f45524331393637557067726164653a20756e737570706f727465642070726f786044820152681a58589b195555525160ba1b60648201526084016106c8565b5061108c838383613aa9565b60008054610100900460ff1615613644578160ff1660011480156136205750303b155b61363c5760405162461bcd60e51b81526004016106c890614d83565b506000919050565b60005460ff80841691161061366b5760405162461bcd60e51b81526004016106c890614d83565b506000805460ff191660ff92909216919091179055600190565b919050565b600054610100900460ff16611d085760405162461bcd60e51b81526004016106c890614dd1565b600054610100900460ff166136d85760405162461bcd60e51b81526004016106c890614dd1565b611d08613ace565b600054610100900460ff166137075760405162461bcd60e51b81526004016106c890614dd1565b611d08613b01565b600082815260656020526040808220600101805490849055905190918391839186917fbd79b86ffe0ab8e8776151514217cd7cacd52c909f66475c3af44e129f0b00ff9190a4505050565b60975460ff166137a35760405162461bcd60e51b815260206004820152601460248201527314185d5cd8589b194e881b9bdd081c185d5cd95960621b60448201526064016106c8565b6097805460ff191690557f5db9ee0a495bf2e6ff9c91a7834c1ba4fdd244a5e8aa4e537bd38aeae4b073aa335b6040516001600160a01b03909116815260200160405180910390a1565b60975460ff16156138105760405162461bcd60e51b81526004016106c890614661565b6097805460ff191660011790557f62e78cea01bee320cd4e420270b5ea74000d11b0c9f74754ebdbfc544b05a2586137d03390565b60008183106138545781613352565b5090919050565b60006133528383613b2f565b60008181526001830160205260408120546138ae57508154600181810184556000848152602080822090930184905584548482528286019093526040902091909155610673565b506000610673565b6138c082826125b4565b6116a5576138d8816001600160a01b03166014613b59565b6138e3836020613b59565b6040516020016138f4929190614e1c565b60408051601f198184030181529082905262461bcd60e51b82526106c891600401614e91565b60008181526001830160205260408120548015613a0357600061393e60018361470c565b85549091506000906139529060019061470c565b90508181146139b7576000866000018281548110613972576139726148e5565b9060005260206000200154905080876000018481548110613995576139956148e5565b6000918252602080832090910192909255918252600188019052604090208390555b85548690806139c8576139c8614ea4565b600190038181906000526020600020016000905590558560010160008681526020019081526020016000206000905560019350505050610673565b6000915050610673565b6001600160a01b0381163b613a7a5760405162461bcd60e51b815260206004820152602d60248201527f455243313936373a206e657720696d706c656d656e746174696f6e206973206e60448201526c1bdd08184818dbdb9d1c9858dd609a1b60648201526084016106c8565b600080516020614ee483398151915280546001600160a01b0319166001600160a01b0392909216919091179055565b613ab283613cf4565b600082511180613abf5750805b1561108c576133368383613d34565b600054610100900460ff16613af55760405162461bcd60e51b81526004016106c890614dd1565b6097805460ff19169055565b600054610100900460ff16613b285760405162461bcd60e51b81526004016106c890614dd1565b600160c955565b6000826000018281548110613b4657613b466148e5565b9060005260206000200154905092915050565b60606000613b688360026146ed565b613b73906002614972565b6001600160401b03811115613b8a57613b8a6142e6565b6040519080825280601f01601f191660200182016040528015613bb4576020820181803683370190505b509050600360fc1b81600081518110613bcf57613bcf6148e5565b60200101906001600160f81b031916908160001a905350600f60fb1b81600181518110613bfe57613bfe6148e5565b60200101906001600160f81b031916908160001a9053506000613c228460026146ed565b613c2d906001614972565b90505b6001811115613ca5576f181899199a1a9b1b9c1cb0b131b232b360811b85600f1660108110613c6157613c616148e5565b1a60f81b828281518110613c7757613c776148e5565b60200101906001600160f81b031916908160001a90535060049490941c93613c9e81614eba565b9050613c30565b5083156133525760405162461bcd60e51b815260206004820181905260248201527f537472696e67733a20686578206c656e67746820696e73756666696369656e7460448201526064016106c8565b613cfd81613a0d565b6040516001600160a01b038216907fbc7cd75a20ee27fd9adebab32041f755214dbc6bffa90cc0225b39da2e5c2d3b90600090a250565b60606001600160a01b0383163b613d9c5760405162461bcd60e51b815260206004820152602660248201527f416464726573733a2064656c65676174652063616c6c20746f206e6f6e2d636f6044820152651b9d1c9858dd60d21b60648201526084016106c8565b600080846001600160a01b031684604051613db79190614ed1565b600060405180830381855af49150503d8060008114613df2576040519150601f19603f3d011682016040523d82523d6000602084013e613df7565b606091505b5091509150613e1f8282604051806060016040528060278152602001614f0460279139613e28565b95945050505050565b60608315613e37575081613352565b825115613e475782518084602001fd5b8160405162461bcd60e51b81526004016106c89190614e91565b828054613e6d906147ed565b90600052602060002090601f016020900481019282613e8f5760008555613ed5565b82601f10613ea857805160ff1916838001178555613ed5565b82800160010185558215613ed5579182015b82811115613ed5578251825591602001919060010190613eba565b50613ee1929150613fd5565b5090565b508054613ef1906147ed565b6000825580601f10613f01575050565b601f0160209004906000526020600020908101906117869190613fd5565b828054613f2b906147ed565b90600052602060002090601f016020900481019282613f4d5760008555613ed5565b82601f10613f665782800160ff19823516178555613ed5565b82800160010185558215613ed5579182015b82811115613ed5578235825591602001919060010190613f78565b6040518060c001604052806000801916815260200160006001600160a01b03168152602001606081526020016060815260200160008152602001600081525090565b5b80821115613ee15760008155600101613fd6565b600060208284031215613ffc57600080fd5b81356001600160e01b03198116811461335257600080fd5b6001600160a01b038116811461178657600080fd5b60008060006060848603121561403e57600080fd5b8335925060208401359150604084013561405781614014565b809150509250925092565b60008083601f84011261407457600080fd5b5081356001600160401b0381111561408b57600080fd5b6020830191508360208285010111156140a357600080fd5b9250929050565b6000806000806000606086880312156140c257600080fd5b85356140cd81614014565b945060208601356001600160401b03808211156140e957600080fd5b6140f589838a01614062565b9096509450604088013591508082111561410e57600080fd5b5061411b88828901614062565b969995985093965092949392505050565b6000806040838503121561413f57600080fd5b82359150602083013561415181614014565b809150509250929050565b60006020828403121561416e57600080fd5b5035919050565b60006020828403121561418757600080fd5b813561335281614014565b60008083601f8401126141a457600080fd5b5081356001600160401b038111156141bb57600080fd5b6020830191508360208260051b85010111156140a357600080fd5b801515811461178657600080fd5b6000806000806000608086880312156141fc57600080fd5b85356001600160401b0381111561421257600080fd5b61421e88828901614192565b909650945050602086013561423281614014565b9250604086013591506060860135614249816141d6565b809150509295509295909350565b60008060008060006060868803121561426f57600080fd5b8535945060208601356001600160401b03808211156140e957600080fd5b60008060008060008060c087890312156142a657600080fd5b863595506020870135945060408701359350606087013560ff811681146142cc57600080fd5b9598949750929560808101359460a0909101359350915050565b634e487b7160e01b600052604160045260246000fd5b60405161010081016001600160401b038111828210171561431f5761431f6142e6565b60405290565b604051601f8201601f191681016001600160401b038111828210171561434d5761434d6142e6565b604052919050565b60006001600160401b0382111561436e5761436e6142e6565b50601f01601f191660200190565b6000806040838503121561438f57600080fd5b823561439a81614014565b915060208301356001600160401b038111156143b557600080fd5b8301601f810185136143c657600080fd5b80356143d96143d482614355565b614325565b8181528660208385010111156143ee57600080fd5b816020840160208301376000602083830101528093505050509250929050565b60008060006060848603121561442357600080fd5b505081359360208301359350604090920135919050565b6000806000806080858703121561445057600080fd5b5050823594602084013594506040840135936060013592509050565b60005b8381101561448757818101518382015260200161446f565b838111156133365750506000910152565b600081518084526144b081602086016020860161446c565b601f01601f19169290920160200192915050565b8051825260018060a01b0360208201511660208301526000604082015160c060408501526144f560c0850182614498565b90506060830151848203606086015261450e8282614498565b9150506080830151608085015260a083015160a08501528091505092915050565b60208152600061335260208301846144c4565b6000806040838503121561455557600080fd5b50508035926020909101359150565b6000602080830181845280855180835260408601915060408160051b870101925083870160005b828110156145b957603f198886030184526145a78583516144c4565b9450928501929085019060010161458b565b5092979650505050505050565b6000806000604084860312156145db57600080fd5b83356001600160401b038111156145f157600080fd5b6145fd86828701614192565b9094509250506020840135614057816141d6565b60208082526010908201526f3ab735b737bbb71037b832b930ba37b960811b604082015260600190565b6020808252600c908201526b3737ba1037b832b930ba37b960a11b604082015260600190565b60208082526010908201526f14185d5cd8589b194e881c185d5cd95960821b604082015260600190565b634e487b7160e01b600052600160045260246000fd5b6000602082840312156146b357600080fd5b815161335281614014565b6000602082840312156146d057600080fd5b5051919050565b634e487b7160e01b600052601160045260246000fd5b6000816000190483118215151615614707576147076146d7565b500290565b60008282101561471e5761471e6146d7565b500390565b6001600160a01b039384168152919092166020820152604081019190915260600190565b8051613685816141d6565b60006020828403121561476457600080fd5b8151613352816141d6565b6020808252600990820152683737ba1030b236b4b760b91b604082015260600190565b81835281816020850137506000828201602090810191909152601f909101601f19169091010190565b6040815260006147cf604083018688614792565b82810360208401526147e2818587614792565b979650505050505050565b600181811c9082168061480157607f821691505b6020821081141561482257634e487b7160e01b600052602260045260246000fd5b50919050565b60408152600061483b6040830185614498565b8281036020840152613e1f8185614498565b6020808252602c908201527f46756e6374696f6e206d7573742062652063616c6c6564207468726f7567682060408201526b19195b1959d85d1958d85b1b60a21b606082015260800190565b6020808252602c908201527f46756e6374696f6e206d7573742062652063616c6c6564207468726f7567682060408201526b6163746976652070726f787960a01b606082015260800190565b634e487b7160e01b600052603260045260246000fd5b600060001982141561490f5761490f6146d7565b5060010190565b6080815260006149296080830189614498565b828103602084015261493b8189614498565b90508281036040840152614950818789614792565b90508281036060840152614965818587614792565b9998505050505050505050565b60008219821115614985576149856146d7565b500190565b6001600160a01b0397881681529590961660208601526040850193909352606084019190915260ff16608083015260a082015260c081019190915260e00190565b6000826149e857634e487b7160e01b600052601260045260246000fd5b500490565b600082601f8301126149fe57600080fd5b8151614a0c6143d482614355565b818152846020838601011115614a2157600080fd5b614a3282602083016020870161446c565b949350505050565b600082601f830112614a4b57600080fd5b604051604081018181106001600160401b0382111715614a6d57614a6d6142e6565b8060405250806040840185811115614a8457600080fd5b845b81811015614a9e578051835260209283019201614a86565b509195945050505050565b600060208284031215614abb57600080fd5b81516001600160401b0380821115614ad257600080fd5b908301906101408286031215614ae757600080fd5b614aef6142fc565b8251815260208301516020820152604083015182811115614b0f57600080fd5b614b1b878286016149ed565b604083015250606083015182811115614b3357600080fd5b614b3f878286016149ed565b606083015250614b5160808401614747565b6080820152614b6260a08401614747565b60a0820152614b748660c08501614a3a565b60c0820152614b87866101008501614a3a565b60e082015295945050505050565b6000823560be19833603018112614bab57600080fd5b9190910192915050565b6000808335601e19843603018112614bcc57600080fd5b8301803591506001600160401b03821115614be657600080fd5b6020019150368190038213156140a357600080fd5b601f82111561108c57600081815260208120601f850160051c81016020861015614c225750805b601f850160051c820191505b8181101561197657828155600101614c2e565b6001600160401b03831115614c5857614c586142e6565b614c6c83614c6683546147ed565b83614bfb565b6000601f841160018114614ca05760008515614c885750838201355b600019600387901b1c1916600186901b178355613204565b600083815260209020601f19861690835b82811015614cd15786850135825560209485019460019092019101614cb1565b5086821015614cee5760001960f88860031b161c19848701351681555b505060018560011b0183555050505050565b81358155600181016020830135614d1681614014565b81546001600160a01b0319166001600160a01b0391909116179055614d3e6040830183614bb5565b614d4c818360028601614c41565b5050614d5b6060830183614bb5565b614d69818360038601614c41565b50506080820135600482015560a082013560058201555050565b6020808252602e908201527f496e697469616c697a61626c653a20636f6e747261637420697320616c72656160408201526d191e481a5b9a5d1a585b1a5e995960921b606082015260800190565b6020808252602b908201527f496e697469616c697a61626c653a20636f6e7472616374206973206e6f74206960408201526a6e697469616c697a696e6760a81b606082015260800190565b7f416363657373436f6e74726f6c3a206163636f756e7420000000000000000000815260008351614e5481601785016020880161446c565b7001034b99036b4b9b9b4b733903937b6329607d1b6017918401918201528351614e8581602884016020880161446c565b01602801949350505050565b6020815260006133526020830184614498565b634e487b7160e01b600052603160045260246000fd5b600081614ec957614ec96146d7565b506000190190565b60008251614bab81846020870161446c56fe360894a13ba1a3210667c828492db98dca3e2076cc3735a920a3ca505d382bbc416464726573733a206c6f772d6c6576656c2064656c65676174652063616c6c206661696c65649dd0c3bd9bb5e1c820c362d05d5cb38480246edb10ff416751bc3dcaccab86fea26469706673582212201a234954f4e203e552664e50dfa686bcdbe25d56c17376e8281a1aa9a110ddd464736f6c63430008090033",
  "devdoc": {
    "kind": "dev",
    "methods": {
      "createOperator(address,string,string)": {
        "details": "Does not check name or email for validity or uniqueness"
      },
      "depositOperatorBalance(bytes32,uint256,uint256,uint8,bytes32,bytes32)": {
        "details": "CAUTION: To avoid loss of funds, do NOT deposit to this contract by token.transfer()."
      },
      "depositOperatorStake(bytes32,uint256,uint256,uint8,bytes32,bytes32)": {
        "details": "CAUTION: To avoid loss of funds, do NOT deposit to this contract by token.transfer()."
      },
      "getOperator(bytes32)": {
        "details": "Reverts if the id is unknown"
      },
      "getOperators(uint256,uint256)": {
        "details": "Truncates the results if skip or size are out of bounds"
      },
      "getRoleAdmin(bytes32)": {
        "details": "Returns the admin role that controls `role`. See {grantRole} and {revokeRole}. To change a role's admin, use {_setRoleAdmin}."
      },
      "grantRole(bytes32,address)": {
        "details": "Grants `role` to `account`. If `account` had not been already granted `role`, emits a {RoleGranted} event. Requirements: - the caller must have ``role``'s admin role."
      },
      "hasRole(bytes32,address)": {
        "details": "Returns `true` if `account` has been granted `role`."
      },
      "initialize(address[],address,uint256,bool)": {
        "details": "Called once to set up the contract. Not called during proxy upgrades.",
        "params": {
          "grantImporterRole": "allows the contract deployer to import initial data into the contract using unsafeImport* functions, which is used for proxy-less upgrades. CAUTION: Once import is finished, the importer role should be explicitly revoked."
        }
      },
      "paused()": {
        "details": "Returns true if the contract is paused, and false otherwise."
      },
      "proxiableUUID()": {
        "details": "Implementation of the ERC1822 {proxiableUUID} function. This returns the storage slot used by the implementation. It is used to validate that the this implementation remains valid after an upgrade. IMPORTANT: A proxy pointing at a proxiable contract should not be considered proxiable itself, because this risks bricking a proxy that upgrades to it, by delegating to itself until out of gas. Thus it is critical that this function revert if invoked through a proxy. This is guaranteed by the `notDelegated` modifier."
      },
      "renounceRole(bytes32,address)": {
        "details": "Revokes `role` from the calling account. Roles are often managed via {grantRole} and {revokeRole}: this function's purpose is to provide a mechanism for accounts to lose their privileges if they are compromised (such as when a trusted device is misplaced). If the calling account had been revoked `role`, emits a {RoleRevoked} event. Requirements: - the caller must be `account`."
      },
      "revokeRole(bytes32,address)": {
        "details": "Revokes `role` from `account`. If `account` had been granted `role`, emits a {RoleRevoked} event. Requirements: - the caller must have ``role``'s admin role."
      },
      "setOperatorProps(bytes32,string,string)": {
        "details": "Does not check name or email for validity or uniqueness"
      },
      "supportsInterface(bytes4)": {
        "details": "See {IERC165-supportsInterface}."
      },
      "unsafeImportData((bytes32,address,string,string,uint256,uint256)[],bool)": {
        "details": "Allows to import initial contract data. Used for proxy-less upgrades.",
        "params": {
          "revokeImporterRole": "stops further data import by revoking the role. CAUTION: Once import is finished, the role should be explicitly revoked."
        }
      },
      "unsafeSetBalances(uint256,uint256,uint256,uint256)": {
        "details": "Adjusts multiple operators balances relative to their current values.CAUTION: This can break data consistency. Used for proxy-less upgrades."
      },
      "unsafeSetRegistry(address)": {
        "details": "CAUTION: This can break data consistency. Used for proxy-less upgrades."
      },
      "upgradeTo(address)": {
        "details": "Upgrade the implementation of the proxy to `newImplementation`. Calls {_authorizeUpgrade}. Emits an {Upgraded} event."
      },
      "upgradeToAndCall(address,bytes)": {
        "details": "Upgrade the implementation of the proxy to `newImplementation`, and subsequently execute the function call encoded in `data`. Calls {_authorizeUpgrade}. Emits an {Upgraded} event."
      }
    },
    "title": "Entry point for managing network node operators",
    "version": 1
  },
  "userdoc": {
    "kind": "user",
    "methods": {
      "createOperator(address,string,string)": {
        "notice": "Registers a new network operator. Only admin can do this."
      },
      "deleteOperator(bytes32)": {
        "notice": "Unregisters a network operator. Reverts if operator has stake or nodes."
      },
      "depositOperatorBalance(bytes32,uint256,uint256,uint8,bytes32,bytes32)": {
        "notice": "Transfers USDC into the contract and applies them toward given operator balance."
      },
      "depositOperatorStake(bytes32,uint256,uint256,uint8,bytes32,bytes32)": {
        "notice": "Transfers tokens into the contract and applies them toward given operator stake."
      },
      "withdrawOperatorBalance(bytes32,uint256,address)": {
        "notice": "Transfers earned USDC from contract to given recipient."
      },
      "withdrawOperatorStake(bytes32,uint256,address)": {
        "notice": "Transfers stake from contract to given recipient. Reverts if stake is locked."
      }
    },
    "version": 1
  },
  "storageLayout": {
    "storage": [
      {
        "astId": 808,
        "contract": "contracts/ArmadaOperators.sol:ArmadaOperators",
        "label": "_initialized",
        "offset": 0,
        "slot": "0",
        "type": "t_uint8"
      },
      {
        "astId": 811,
        "contract": "contracts/ArmadaOperators.sol:ArmadaOperators",
        "label": "_initializing",
        "offset": 1,
        "slot": "0",
        "type": "t_bool"
      },
      {
        "astId": 1533,
        "contract": "contracts/ArmadaOperators.sol:ArmadaOperators",
        "label": "__gap",
        "offset": 0,
        "slot": "1",
        "type": "t_array(t_uint256)50_storage"
      },
      {
        "astId": 1840,
        "contract": "contracts/ArmadaOperators.sol:ArmadaOperators",
        "label": "__gap",
        "offset": 0,
        "slot": "51",
        "type": "t_array(t_uint256)50_storage"
      },
      {
        "astId": 39,
        "contract": "contracts/ArmadaOperators.sol:ArmadaOperators",
        "label": "_roles",
        "offset": 0,
        "slot": "101",
        "type": "t_mapping(t_bytes32,t_struct(RoleData)34_storage)"
      },
      {
        "astId": 338,
        "contract": "contracts/ArmadaOperators.sol:ArmadaOperators",
        "label": "__gap",
        "offset": 0,
        "slot": "102",
        "type": "t_array(t_uint256)49_storage"
      },
      {
        "astId": 1100,
        "contract": "contracts/ArmadaOperators.sol:ArmadaOperators",
        "label": "_paused",
        "offset": 0,
        "slot": "151",
        "type": "t_bool"
      },
      {
        "astId": 1189,
        "contract": "contracts/ArmadaOperators.sol:ArmadaOperators",
        "label": "__gap",
        "offset": 0,
        "slot": "152",
        "type": "t_array(t_uint256)49_storage"
      },
      {
        "astId": 1204,
        "contract": "contracts/ArmadaOperators.sol:ArmadaOperators",
        "label": "_status",
        "offset": 0,
        "slot": "201",
        "type": "t_uint256"
      },
      {
        "astId": 1248,
        "contract": "contracts/ArmadaOperators.sol:ArmadaOperators",
        "label": "__gap",
        "offset": 0,
        "slot": "202",
        "type": "t_array(t_uint256)49_storage"
      },
      {
        "astId": 790,
        "contract": "contracts/ArmadaOperators.sol:ArmadaOperators",
        "label": "__gap",
        "offset": 0,
        "slot": "251",
        "type": "t_array(t_uint256)50_storage"
      },
      {
        "astId": 1078,
        "contract": "contracts/ArmadaOperators.sol:ArmadaOperators",
        "label": "__gap",
        "offset": 0,
        "slot": "301",
        "type": "t_array(t_uint256)50_storage"
      },
      {
        "astId": 13332,
        "contract": "contracts/ArmadaOperators.sol:ArmadaOperators",
        "label": "_registry",
        "offset": 0,
        "slot": "351",
        "type": "t_contract(ArmadaRegistry)17190"
      },
      {
        "astId": 13334,
        "contract": "contracts/ArmadaOperators.sol:ArmadaOperators",
        "label": "_stakePerNode",
        "offset": 0,
        "slot": "352",
        "type": "t_uint256"
      },
      {
        "astId": 13339,
        "contract": "contracts/ArmadaOperators.sol:ArmadaOperators",
        "label": "_operators",
        "offset": 0,
        "slot": "353",
        "type": "t_mapping(t_bytes32,t_struct(ArmadaOperator)18701_storage)"
      },
      {
        "astId": 13342,
        "contract": "contracts/ArmadaOperators.sol:ArmadaOperators",
        "label": "_operatorIds",
        "offset": 0,
        "slot": "354",
        "type": "t_struct(Bytes32Set)9898_storage"
      }
    ],
    "types": {
      "t_address": {
        "encoding": "inplace",
        "label": "address",
        "numberOfBytes": "20"
      },
      "t_array(t_bytes32)dyn_storage": {
        "base": "t_bytes32",
        "encoding": "dynamic_array",
        "label": "bytes32[]",
        "numberOfBytes": "32"
      },
      "t_array(t_uint256)49_storage": {
        "base": "t_uint256",
        "encoding": "inplace",
        "label": "uint256[49]",
        "numberOfBytes": "1568"
      },
      "t_array(t_uint256)50_storage": {
        "base": "t_uint256",
        "encoding": "inplace",
        "label": "uint256[50]",
        "numberOfBytes": "1600"
      },
      "t_bool": {
        "encoding": "inplace",
        "label": "bool",
        "numberOfBytes": "1"
      },
      "t_bytes32": {
        "encoding": "inplace",
        "label": "bytes32",
        "numberOfBytes": "32"
      },
      "t_contract(ArmadaRegistry)17190": {
        "encoding": "inplace",
        "label": "contract ArmadaRegistry",
        "numberOfBytes": "20"
      },
      "t_mapping(t_address,t_bool)": {
        "encoding": "mapping",
        "key": "t_address",
        "label": "mapping(address => bool)",
        "numberOfBytes": "32",
        "value": "t_bool"
      },
      "t_mapping(t_bytes32,t_struct(ArmadaOperator)18701_storage)": {
        "encoding": "mapping",
        "key": "t_bytes32",
        "label": "mapping(bytes32 => struct ArmadaOperator)",
        "numberOfBytes": "32",
        "value": "t_struct(ArmadaOperator)18701_storage"
      },
      "t_mapping(t_bytes32,t_struct(RoleData)34_storage)": {
        "encoding": "mapping",
        "key": "t_bytes32",
        "label": "mapping(bytes32 => struct AccessControlUpgradeable.RoleData)",
        "numberOfBytes": "32",
        "value": "t_struct(RoleData)34_storage"
      },
      "t_mapping(t_bytes32,t_uint256)": {
        "encoding": "mapping",
        "key": "t_bytes32",
        "label": "mapping(bytes32 => uint256)",
        "numberOfBytes": "32",
        "value": "t_uint256"
      },
      "t_string_storage": {
        "encoding": "bytes",
        "label": "string",
        "numberOfBytes": "32"
      },
      "t_struct(ArmadaOperator)18701_storage": {
        "encoding": "inplace",
        "label": "struct ArmadaOperator",
        "members": [
          {
            "astId": 18690,
            "contract": "contracts/ArmadaOperators.sol:ArmadaOperators",
            "label": "id",
            "offset": 0,
            "slot": "0",
            "type": "t_bytes32"
          },
          {
            "astId": 18692,
            "contract": "contracts/ArmadaOperators.sol:ArmadaOperators",
            "label": "owner",
            "offset": 0,
            "slot": "1",
            "type": "t_address"
          },
          {
            "astId": 18694,
            "contract": "contracts/ArmadaOperators.sol:ArmadaOperators",
            "label": "name",
            "offset": 0,
            "slot": "2",
            "type": "t_string_storage"
          },
          {
            "astId": 18696,
            "contract": "contracts/ArmadaOperators.sol:ArmadaOperators",
            "label": "email",
            "offset": 0,
            "slot": "3",
            "type": "t_string_storage"
          },
          {
            "astId": 18698,
            "contract": "contracts/ArmadaOperators.sol:ArmadaOperators",
            "label": "stake",
            "offset": 0,
            "slot": "4",
            "type": "t_uint256"
          },
          {
            "astId": 18700,
            "contract": "contracts/ArmadaOperators.sol:ArmadaOperators",
            "label": "balance",
            "offset": 0,
            "slot": "5",
            "type": "t_uint256"
          }
        ],
        "numberOfBytes": "192"
      },
      "t_struct(Bytes32Set)9898_storage": {
        "encoding": "inplace",
        "label": "struct EnumerableSet.Bytes32Set",
        "members": [
          {
            "astId": 9897,
            "contract": "contracts/ArmadaOperators.sol:ArmadaOperators",
            "label": "_inner",
            "offset": 0,
            "slot": "0",
            "type": "t_struct(Set)9704_storage"
          }
        ],
        "numberOfBytes": "64"
      },
      "t_struct(RoleData)34_storage": {
        "encoding": "inplace",
        "label": "struct AccessControlUpgradeable.RoleData",
        "members": [
          {
            "astId": 31,
            "contract": "contracts/ArmadaOperators.sol:ArmadaOperators",
            "label": "members",
            "offset": 0,
            "slot": "0",
            "type": "t_mapping(t_address,t_bool)"
          },
          {
            "astId": 33,
            "contract": "contracts/ArmadaOperators.sol:ArmadaOperators",
            "label": "adminRole",
            "offset": 0,
            "slot": "1",
            "type": "t_bytes32"
          }
        ],
        "numberOfBytes": "64"
      },
      "t_struct(Set)9704_storage": {
        "encoding": "inplace",
        "label": "struct EnumerableSet.Set",
        "members": [
          {
            "astId": 9699,
            "contract": "contracts/ArmadaOperators.sol:ArmadaOperators",
            "label": "_values",
            "offset": 0,
            "slot": "0",
            "type": "t_array(t_bytes32)dyn_storage"
          },
          {
            "astId": 9703,
            "contract": "contracts/ArmadaOperators.sol:ArmadaOperators",
            "label": "_indexes",
            "offset": 0,
            "slot": "1",
            "type": "t_mapping(t_bytes32,t_uint256)"
          }
        ],
        "numberOfBytes": "64"
      },
      "t_uint256": {
        "encoding": "inplace",
        "label": "uint256",
        "numberOfBytes": "32"
      },
      "t_uint8": {
        "encoding": "inplace",
        "label": "uint8",
        "numberOfBytes": "1"
      }
    }
  }
}